:020000040800F2
:10000000802F0020A54A0008C9B70008914A0008BF
:10001000914A0008914A0008914A00080000000037
:10002000000000000000000000000000A54B0008D8
:10003000914A0008000000003D4B0008097F0008BD
:10004000454D0008454D0008454D0008454D000848
:10005000454D0008454D0008454D0008454D000838
:10006000454D0008454D0008454D0008454D000828
:10007000454D0008454D0008454D0008454D000818
:10008000454D0008454D0008454D0008454D000808
:10009000454D0008454D0008454D0008454D0008F8
:1000A000454D0008454D0008454D0008454D0008E8
:1000B000454D0008454D0008454D0008454D0008D8
:1000C000454D0008454D0008454D0008454D0008C8
:1000D000454D0008454D0008454D0008454D0008B8
:1000E000454D0008454D0008454D0008454D0008A8
:1000F000454D0008454D0008454D0008454D000898
:10010000454D0008454D0008454D0008454D000887
:10011000454D0008454D0008454D0008454D000877
:10012000454D0008454D0008454D0008454D000867
:08013000454D0008454D000893
:100138007BB972B90029BEBF00204FF0004106E02C
:1001480008BF00281CBF6FF000414FF0FF3000F0DF
:1001580057B8ADF1080C6DE904CE002909DB002B76
:100168001ADB00F062F8DDF804E0DDE9022304B0F0
:100178007047404261EB4101002B1BDB00F055F852
:10018800DDF804E0DDE9022304B0404261EB4101FF
:10019800524263EB43037047524263EB430300F060
:1001A80044F8DDF804E0DDE9022304B0404261EBE5
:1001B80041017047524263EB430300F036F8DDF823
:1001C80004E0DDE9022304B0524263EB43037047C5
:1001D80053B94AB9002908BF00281CBF4FF0FF31A6
:1001E8004FF0FF3000F00CB8ADF1080C6DE904CE0B
:1001F80000F01BF8DDF804E0DDE9022304B07047E5
:10020800704700BF430803F05533C01A00F033337A
:10021800800800F03330184400EB10104FF0013321
:1002280000F00F305843000E70472DE9F04786461E
:100238008C460846089E154674461946002B40F021
:10024800C2808542B2FA82F245D94AB1C2F120038E
:1002580000FA02FC2EFA03F3954043EA0C0C944092
:100268004FEA154EA8B2BCFBFEF8230C0EFB18CCC7
:1002780008FB00F943EA0C43994528D9EB1808F123
:10028800FF3704D2994502D9A8F102072B44A3EB02
:100298000903A4B2B3FBFEFC0EFB1C330CFB00F0FD
:1002A80044EA0344A04214D92C190CF1FF3304D2B8
:1002B800A04202D9ACF102032C44241A43EA0740B5
:1002C8001EB1D440002334607360BDE8F087474610
:1002D800DDE76346F1E792BB431B01214FEA154E68
:1002E800AFB2B3FBFEFC200C0EFB1C330CFB07F873
:1002F80040EA0343984562D9EB180CF1FF3004D269
:10030800984502D9ACF102002B44A3EB0803A4B230
:10031800B3FBFEFC0EFB1C330CFB07F744EA03445B
:10032800A7424ED92C190CF1FF3304D2A74202D9A7
:10033800ACF102032C44E41B43EA0040C0E7C2F1DD
:10034800200320FA03F1954090402EFA03F303436B
:100358004FEA154EAFB2B1FBFEFC0EFB1C10190C98
:100368000CFB07F841EA0041884504FA02F422D957
:1003780069180CF1FF3004D2884502D9ACF10200AB
:100388002944A1EB08019BB2B1FBFEFC0EFB1C113A
:100398000CFB07F743EA01439F420ED9EB180CF117
:1003A800FF3104D29F4202D9ACF102012B44DB1B7E
:1003B80041EA004192E76046E3E76146F7E76046B5
:1003C800A3E76346B7E7834206D916B90021084672
:1003D8007BE7C6E900E0F9E7B3FA83F78FB9834210
:1003E80001D3724508D8BEEB020460EB0303012079
:1003F8009C461EB9002168E73846FAE7C6E9004C72
:10040800F8E7C7F1200CBB4022FA0CF41C432EFA83
:100418000CF120FA0CF3B84001434FEA14490EFAE4
:1004280007F5B3FBF9F81FFA84FE09FB18300B0C2B
:1004380008FB0EFA43EA00439A4502FA07F240D94C
:10044800E31808F1FF3004D29A4502D9A8F1020056
:100458002344A3EB0A0389B2B3FBF9F809FB183369
:1004680008FB0EFE41EA03418E452CD9611808F1BC
:10047800FF3304D28E4502D9A8F10203214443EA8E
:100488000040A0FB0298A1EB0E014145CE46434631
:1004980002D306D14D4504D2B9EB020E68EB040332
:1004A8000138002EA6D0B5EB0E0261EB030101FA6C
:1004B8000CFC22FA07F34CEA0303F940C6E90031C1
:1004C80098E74046C5E74346D9E710F8012B11F8ED
:1004D800013B012A28BF9A42F7D0D01A7047034639
:1004E80011F8012B03F8012B002AF9D170470346B4
:1004F80013F8012B002AFBD1181A013870470000A5
:100508002DE9F04704468AB0884617460CF014FFD8
:100518000A220023FFF75CFEB8F1010F06460D46DC
:1005280008D1CDE900012A4A082120460AF073FBC8
:10053800002012E07F6827483946FFF7C6FF78B1E8
:1005480025483946FFF7C1FF50B12046234A3B46AC
:1005580001210AF060FB6FF004000AB0BDE8F087E3
:100568003046294618A3D3E90023FFF7E1FD0646E4
:100578000D46104619461A4A0023FFF7D9FD804652
:100588000F46104619464EF660220023FFF7D0FDAD
:1005980082468946104619464FF47A720023FFF7BF
:1005A800C7FDCDE904A9CDE90601CDE90823CDE9C8
:1005B8000287CDE900650B4A082120460AF02BFB8B
:1005C800B6E700BFAFF30080005C2605000000001E
:1005D800E3EB0008F4EB0008F7EB000800EC000878
:1005E80080EE360017EC0008044803685B0703D068
:1005F800034A01210AF056B9704700BF0C030020D6
:1006080014E900081FB50C4B00934FF42063ADF8B4
:10061800043001238DF80630084B02930023ADF80F
:100628000C30836869461B689847041E01DAFFF797
:10063800DBFF204604B010BDE060903308000E00D8
:100648001FB50C4B00934FF42063ADF80430012321
:100658008DF80630084B02930023ADF80C30836800
:1006680069461B689847041E01DAFFF7BDFF20465C
:1006780004B010BDE06090330800040170B51C4D53
:100688002B6803F00703022B86B004460E4605D9F3
:10069800184A0B46284603210AF00DF9164A334634
:1006A8000A2103A809F0E0F80023092203A96846F3
:1006B8008DF809300CF0F2FF2046FFF7C1FFA36860
:1006C8000A225B6869462046984700282B6808DAA2
:1006D8005B0704D0094A012105480AF0E3F806B08F
:1006E80070BD03F00703022BF9D9054A0321F3E78C
:1006F8000C03002027E9000840E9000845E9000844
:1007080056E90008F0B587B0234D04AF06467B7163
:100718000C46FA80FFF776FF2B6803F00703022BDD
:1007280004D91E4A032128460AF0BCF84FF0FF30CE
:100738004FF0FF31B3687A1DCDE900010392BA1D6D
:100748000292DB680A2221463046984700282B6827
:1007580009DA5B0704D0124A0F4801210AF0A2F80F
:100768000C37BD46F0BD03F00703022BF8D96D46E0
:1007780088B004AA0B4BC2E905344FF40073938385
:10078800094B42F8103F044800234FF4E65101F0AA
:10079800EFF8AD46E4E700BF0C03002061E900086C
:1007A8006DE9000881E9000803000001B0B582B0D6
:1007B80002AF1A4C20460CF0BBFB034640B1A368BD
:1007C80017491B6820469847031E1ADBBD46B0BD73
:1007D8001448026802F00702022AF7D921686C4619
:1007E80088B002AA104DC2E905514FF400719183F7
:1007F8000E4942F8101F4FF4E65101F0B9F8A5462A
:10080800E4E70848026802F00702022ADED9084A2B
:100818000093032100230AF058F8D7E7C4D9000849
:10082800B2DD00080C03002093E900080300000172
:10083800B7E9000830B589B01422002103A80CF0EC
:10084800DEFF0DF1060305930423049302230693A8
:100858000C23ADF81C300F48856803A96B689847CE
:10086800002813DBBDF806402B8902A96343082042
:10087800029304F0DDFC08B9029C24136423A4F25B
:100888009E745C43A3F23E3394FBF3F4204609B014
:1008980030BD00BFC4D90008F0B585B000AF002353
:1008A800C7E90133BB811F4C20460CF041FB0346CE
:1008B800C8B91D480268520711D021686C4688B033
:1008C8006A461A4DC2E905514FF4007191831849DF
:1008D80042F8101F4FF4E25101F04AF8A5460020F3
:1008E8001437BD46F0BD13491348124E124D09F096
:1008F80020FBFFF75BFFFFF79DFF01462046FFF750
:10090800BDFE00231A46391D2046FFF7FBFE32467E
:100918002946381D09F027FB002142F2107008F023
:10092800C3FCE8E728DA00080C030020D9E900082E
:100938000300000160D9000874D900082DE9F843C4
:1009480080460F46154600F0ABF8C36804461BB94D
:1009580043691A78002A4CD10023E3606368434551
:1009680057F8232008DB3D4B6361204600F07EF8F2
:100978004FF0FF30BDE8F883511C616116782D2EC9
:10098800F1D1911C61615178A1602D2904D192782F
:1009980062B901336360E6E741B9304B63613146C0
:1009A80028460CF05CFE0028DFD0A660D4F808903A
:1009B800284649460CF053FEB9F13A0F626900D057
:1009C800E0B9137813B963680133636023685BB1D6
:1009D8002B783A2B08D0224803685A0704D0214ABA
:1009E8004B46012109F067FF204600F03FF83F2001
:1009F800C0E75A1C42611B788360D7E743783A2BDB
:100A08000BD000232361137813B963680133636043
:100A1800204600F02BF8A068ACE7117866680F4B09
:100A280029B90136B045666004DD57F82620C4E9C7
:100A38000423EAE763612D783A2D04D1204600F0BB
:100A480015F8284696E72368002BCDD0044803689C
:100A58005B07C9D0044A4B46C3E700BF43ED000813
:100A680000030020F7E900080CEA0008074B0268B9
:100A78001A60074B42681A60064B82681A60064B78
:100A8800C2681A60054B02691A607047D4000020DA
:100A9800D0000020800E00207C0E0020780E002060
:100AA80000487047B80000202DE9F04F91B0840746
:100AB800009302F004030293C2F3C20303F101039B
:100AC800DDF86890039205460E46059340F0BA811A
:100AD800041D30B1072909D86FF01B0011B0BDE81B
:100AE800F08F01F00706341DC6F10806009B4FF091
:100AF8000008591E4FF0040A4FF0FF330193CDF858
:100B080010804746C34653460DB1009A22600598A7
:100B1800002800F3E8809848009A824203D3974857
:100B28008242C0F0E080039AA4EB050E92074FEAD8
:100B38009E0000F103810F2F00F2B180002D00F01C
:100B4800058107F140020DEB020C019A0CF8200C0C
:100B58000CF8102C049801300490E7E07A285DD84E
:100B68004B280ED8472859D829282DD8252852D0BF
:100B780054D820287AD02338D0F1000B4BEB000B47
:100B880074E04C382E2849D8DFE800F0704848480F
:100B980048484848484848484B48484848484848CA
:100BA8004859484B4B595959704B6D487048184B28
:100BB800184848827F4B48484B487F0000204FF038
:100BC800000B4FF0040A38E02A38C0B2012202FABA
:100BD80000F010EA0E0F49D110F0625C2FD110EA34
:100BE800020B43D06046013C5444B4FBFAF40AFBC0
:100BF80004F4002D61D0A3EB050CA4446645FFF472
:100C08006BAF002868D1042B47D159F8043B236007
:100C1800043404232AE0019A013A01924FF0000BB0
:100C280024E011F8010C6C2834D111F8023C0020A2
:100C38006C2B8346C5D14FF0080A5346D3E709F118
:100C4800070929F007090734F9E802AB24F007047B
:100C580035B106982044B0423FF63EAFC4E900AB38
:100C680008344FF0000B4FF0080A534611F8010FF3
:100C7800002878D0BBF1000F7FF470AF2528F5D19C
:100C8800019B013301934FF0010B4FF0040AECE78D
:100C9800584694E700208346A5E7082B02D06FF05A
:100CA80015001BE709F1070929F00709F9E80223EC
:100CB800C4E9002308340823D8E768B9042B02D113
:100CC80009F10409A4E7082BE9D109F1070929F07A
:100CD800070909F10809EDE7059A013A059259F85B
:100CE800042B009210E7039A900720D5A4EB050E79
:100CF8004FEA9E004FF0010CBEF5007FCFD20F2FB8
:100D0800CDD8F5B107F140020DEB020EC0B2019A41
:100D18000EF8200C0EF8102CBCF1000F3FF41AAF9F
:100D280060F07F000EF8200C08F101080137C5F1CA
:100D38000802043406924FF6DA7E97E74FF0000C6B
:100D4800DAE7BCF1000F01D00136EFE7029802366E
:100D58000028EBD10098CDE90631FFF7C8FBDDE9A3
:100D680006310644E2E7631BB3F5806F97D23DB9BD
:100D7800A6F10804E018B1E63CD80008EC07010821
:100D8800029A28609B082B709DF81030C2B1EB7056
:100D980085F80280B8F1000F05D008A80022C5F137
:100DA800010C97420ED1C5F101030DF120094FF056
:100DB800000A01930DF1300B574512D1601B8DE6E7
:100DC8006B70E5E710F8013B190608D504EB0C0E2B
:100DD800764503F07F03FFF47FAE04F8013B013250
:100DE800DFE7B8F1000F03D099F90020002A17DBDC
:100DF800029BD3B11AF80B2004F8012B0022019BA7
:100E0800981820448642FFF467AE99F8000004F869
:100E1800010B0099039220460CF0C9FC039A144474
:100E28000AF1010A09F10109C6E799F8002055F805
:100E380022300093029B45F822300098FFF757FBB9
:100E4800421CDCE76FF00D0048E600BF2DE9F04FCB
:100E580095B000AF90F802B0BB61BB6F7A62C3F384
:100E6800C00304463B618A4641B9457800780BEBDC
:100E780080002044554517D8A0EB040AE3787B612D
:100E8800BBF1000F02D0BB6FD80716D47B6953BBE8
:100E98007B6A1BB1BA695146204698475546284691
:100EA8005437BD46BDE8F08F461C3046FFF71FFBA0
:100EB800013030440AF1010ADCE723783B629B00E9
:100EC800FB603B6A6268FA6104EB83097B6A002B6A
:100ED80040F002815546C84609EB0B0A0026D0456A
:100EE80055D1D94413E0BB6F9907D1D523783B621C
:100EF80099469B00FB606368FB617B6A04EB890988
:100F0800002B7ED15546BBF1000F53D15E46BB6F17
:100F180013F0050F7B6909EB430ABB6F03F002036B
:100F28000CBF4FF0020B4FF0010B7B62D145B6D0DE
:100F380019F8021B19F8013C54F82380AA4B98456C
:100F480002D3AA4B98453CD33B69002B46D0F8699D
:100F580009F062F8002841D0A548036813F0060F8D
:100F680013D0E8468AB06A46A24B5361FB69C2E9CE
:100F780006314FF4007313849F4B42F8103F00234F
:100F88004FF4125100F0F4FCC546023DCEE718F8C4
:100F9800013B54F82300FFF7AAFAFB6F01303BB17D
:100FA800D7F880309E423EBFFB6F23F8160001360B
:100FB800054494E7BB6F13F004061CBF7E6AD9444E
:100FC800A5E73B6923B1F86909F026F80028C3D1E1
:100FD800BB6FDA0705D4A5EB0B05A7E77B6A002BE7
:100FE800A4D04046FFF783FAFB6F43B1D7F88030AF
:100FF8009E423FBFFA6F431C22F816300136054463
:1010080094E7BBF1000F6DD0BB6F13F004066CD0F2
:10101800D846002607F140005A4649460CF0C7FB5F
:101028007B695B007B607B69D94409EB4303BB6048
:10103800BB6F03F002033B60BB684B4557D1B96FE8
:101048006378B86F890706EB030254BF4FEA58016B
:101058000021C507D2B200F19A8010F0040F14BF26
:1010680040460020FB616270A070E170BA69F968BF
:101078007B6A20469847051EFFF611AF3B6A23702E
:10108800FB6963707B69E3704146BA697B6A84F8DF
:1010980002B007F140009847B0F10008C0F2AE80F6
:1010A800FB68BA69AAEB0B01C91A7B684846C91ADA
:1010B8007B6A98470028C0F2A380A84408EB000583
:1010C8004FF0000B07F1300AB34562D30021BA692B
:1010D8007B6A08469847E2E65E464FF0000807F14B
:1010E800300099E75E46D8469AE7B04698E719F87F
:1010F800021B3D4B19F8015C54F82500984202D3B5
:101108003A4B98421DD33B6923B1F86908F084FF34
:10111800002891D13B68FBB908F1280307F12802A0
:1011280008F1010003EB020C07F1500353FA80F0B9
:1011380008F102080CF8101C5FFA88F800F8105C37
:101148007AE73B692BB1F86908F066FF00287FF45D
:1011580073AFBB6FDB0709D506F1280307F1280237
:10116800711C9E1806F8205CCEB265E7BB6F580765
:101178007FF562AF08F1280307F1280208F10101A1
:1011880003EB020808F8105C5FFA81F854E70020C6
:1011980068E71BF80A3087F82F3054F82390FB6F64
:1011A800FBB133F81B80BA697B6A012107F12F0074
:1011B8009847002824DB0544B8F1000F06D14846BB
:1011C800FFF795F900F101081FFA88F8BA697B6AF8
:1011D800414648469847002812DB05440BF1010BAD
:1011E80072E7D7F87C80DEE73CD80008EC070108F6
:1011F800FC02002035EA00080400000145464EE6DE
:1012080005464CE6014B1860704700BFD800002027
:1012180080B505460E461746984608F063F803461B
:101228000CF0FEFADFF81890044649F80030424600
:1012380030463946A84754F8090003F04BFC00BF74
:1012480008000000064B1A6842F400721A601A6817
:1012580042F480621A60034B034A1A600020704708
:10126800004000586C02002000093D00034A536802
:1012780023F0020353600020704700BF002004E001
:101288002DE9F047DFF85880044607464FF001097A
:1012980014B93846BDE8F08794FAA4F5B5FA85F58F
:1012A80009FA05F32E0108EB05156FEA030A24EA8B
:1012B80003042B7B002BEBD058F806301B694BB985
:1012C8004644042273682846196807EA0A0700F0AA
:1012D80013FBDDE7284698470028D9D1F0E700BF7F
:1012E800ACDC000830B51049104889B000220CF079
:1012F80025F80F4D0F4900220023CDE906230024CD
:101308000E23CDE90334CDE901440B4B00944FF48F
:101318004072284607F02CFA0849284607F060F979
:10132800204609B030BD00BF491300084808002016
:10133800880300208016002055160008EDEA0008F2
:10134800014807F049BB00BF700300202DE9F047B2
:1013580080461E480F4609F00BFA064678B300256A
:101368002846BDE8F087237B73B12368DB680BB19F
:101378002046984723681B69CBB96368042219681B
:10138800204600F0B9FA013610344C45EBD3B8F1D9
:10139800000FE5D0002DE2D02846FFF771FF054683
:1013A800002FF7D00021642007F07EFFF2E72046E7
:1013B80098470028E1D00AFA06F31D43E3E7044CF6
:1013C800DFF8109005464FF0010ADEE7940E002082
:1013D800ACDC0008BCDC000808B5034608462BB1A5
:1013E800044A136000F06AFD002008BD6FF0150084
:1013F800FBE700BFDC00002010B5044C237813B9CC
:10140800034807F0E9FA0123237010BD4C150020AA
:101418007003002010B50446084809F0A9F95CB12A
:10142800BFF35B8F064B53E8001F013943E80012F6
:10143800002AF8D1BFF35B8F10BD00BF8C0E0020CF
:10144800900E00200020064BBFF35B8F014653E847
:10145800000F43E80012002AF9D1BFF35B8F7047F1
:101468008C0E002070B5FFF7EDFF084C084E0546BE
:10147800B44200D370BD63685B792BB123685B68A5
:1014880013B12946204698471034F1E7ACDC000830
:10149800BCDC000810B5044C0449204608F0FBFFEA
:1014A800034B1C6010BD00BFB4020020BCDD000867
:1014B800840E0020094A0A4808B500231370094A17
:1014C8001360094A4FF47A711360FFF785FFFFF73D
:1014D800E1FFBDE8084000F067B900BF4D150020E6
:1014E80093A700088C0E0020900E002001460022D1
:1014F8000148002308F0F0BFB4020020014809F0B9
:1015080089B800BFB4020020024B0146186809F0F0
:10151800D3B800BF840E0020014809F009B900BF04
:10152800B4020020F8B5314B187800285DD0FFF7D9
:10153800E5FF044690B1BFF35B8F2D4B53E8001FC6
:10154800013943E80012002AF8D1BFF35B8F294D17
:10155800294EB54226D32046FFF7D6FF274B284C05
:101568001B68002B12DD0BF0E7FE0A220023FEF7B2
:101578002FFED4E90032C01A40F2E93361EB0201D0
:10158800984271F1000101D3FFF76CFFD4E90032F2
:1015980013F57A7342F10002C4E90032BDE8F8405D
:1015A800FFF7BABF6B685B793BB121784B0706D56B
:1015B8002B6821461B68284698471035C9E72388B9
:1015C800626813F4E07FC3F38217C1F3C201EFD05E
:1015D800002AEDD00B4BD21A42F38F020123284682
:1015E80000F0A4F9B842E8D3E2E7F8BD4C150020B2
:1015F800900E0020ACDC0008BCDC00088C0E00203B
:1016080040080020F802002070B50D4D297861B916
:101618000120FFF79BFE0B4C0B4EB44206D3FFF79D
:1016280081FF0028FBD101232B7070BD63685B79B3
:101638001BB1236820469B6898471034EDE700BF2C
:101648004D150020ACDC0008BCDC000800212DE9A9
:10165800F0470846FFF77AFE044658B34FF4FA7885
:101668004FF000090CF0DCF81B4B1C4A1B581360A8
:1016780033B11B4B1B68092B02DD1A4807F0ACF984
:10168800194FDFF860A0002544B12046FFF7F8FDA8
:10169800044618B94FF0FF384FF0FF39FFF742FF03
:1016A800064628B9B5B942464B46504607F0BAF93E
:1016B8003546E9E74FF0FF384FF0FF39D2E72B689E
:1016C8009B691BB100221146284698471035BD4238
:1016D800F5D3E8E7054DFAE708000000880E00207A
:1016E800900E002070030020BCDC0008ACDC000871
:1016F80013B5184809F03CF8174B1B787BB14FF02D
:101708001003EFF3118483F31288BFF36F8FFFF791
:1017180009FF84F31188BFF36F8F02B010BD0F4B20
:101728001B68002BF9D050B900220023CDE9002313
:101738000B4842F21072002307F0B8FFEDE70928C2
:10174800EBD107480BF006FE064802B0BDE8104092
:1017580007F042B9900E00204D150020880E002099
:10176800480800207003002010B5064B1B6804468B
:1017780098472146A060044808F02CFFBDE81040B7
:10178800FFF7B6BFDC000020B4020020044A054B76
:101798009B1AB1EBD30F34BF52F8310000207047C9
:1017A8002CDC0008ACDC00080B480C4B30B51B1ACD
:1017B8000B4CDB0800210430994200D130BD10F8F1
:1017C8003120256802F0070225F007052A4344F86E
:1017D800042B0131F0E700BF2CDC0008ACDC00086A
:1017E800F8020020F8B50B4F0B4DED1B0646ED082F
:1017F8000024AC4203D14FF0FF342046F8BD57F81F
:10180800340020B13146FEF760FE0028F5D00134DF
:10181800EFE700BF2CDC0008ACDC00082DE9F8433A
:10182800884615461E4698B9224FDFF88C90044624
:1018380009E0384633462A464146FFF7EFFF84421F
:1018480038BF044610374F45F3D32046BDE8F88328
:101858001A4B1B4AD21AB5EBD20F28D203EBC50399
:101868001C79B44228BF34464368164E1A7956F894
:10187800253002EB42020721914023EA010304F0DC
:10188800070101FA02F213430021032223FA02F0AE
:1018980000F00700814202F1030238BF01461E2A08
:1018A800F4D123F007030B4346F82530CDE7002495
:1018B800DAE700BFACDC0008BCDC00082CDC000860
:1018C800ACDC0008F8020020F8B5094D094BED1A08
:1018D80006460F46ED080024AC4200D3F8BD0021AF
:1018E80022B23B4630460134FFF798FFA4B2F3E733
:1018F800ACDC00082CDC000838B50B4BC31A0D46CD
:101908001B111146426801331371436804469971EB
:10191800FFF7DAFF63681D60636801225A71BDE84A
:101928003840FFF769BD00BFACDC00080146184627
:1019380063B1002A14DB4B680A491B7951F822006D
:1019480003EB4303D84000F007007047064B0749F4
:10195800C91AB2EBD10F04D203EBC203187970474E
:1019680004207047F80200202CDC0008ACDC0008DA
:101978002DE9F04F8FB004AFC1F34A28B8600D4687
:1019880091467B600C0DB8F1000F67D0002607F177
:1019980014034FF0040B4FF00A0AC7F80C80C7E98C
:1019A80007667E620193CDF808B0CDF800A007F174
:1019B8001C03F96832464846FFF748FAB0F5006F4D
:1019C800034620D32A48036813F0060F17D06C4645
:1019D8008AB0D9F8041004AB264DC3E9055140F28A
:1019E800FF71D9611A464FF400711984224B42F8ED
:1019F800103F4FF412513346FFF7BAFFA5462C3774
:101A0800BD46BDE8F08FC0F30A0804F1170018447A
:101A180020F0070080083B60FFF768FD68F3532556
:101A2800044690B13B68154AC7E9083600F1100131
:101A380007F11403F961CDE900A3CDF808B0F968FE
:101A480007F11C034846FFF701FA68F353257B6842
:101A5800B9682A46204608F0D5FED0E704F11700F9
:101A680020F007008008FFF741FD0446EDE700BFBE
:101A78000403002002EB000804000001E1A70008AD
:101A88002DE9F04F87B0DDE91269DDE9105A044607
:101A98000F4693469846A6B31021CDF800903346DA
:101AA80052460020CDF81490FEF7FEFF014605F1DE
:101AB80017000844144B039104F007040BF0070BBC
:101AC800E40020F0070003EA412344EA8B1480086D
:101AD8001C43FFF70BFD44EA0554054640B13EB1EF
:101AE8000399CDF80090334652461030FEF7DCFFDC
:101AF800434622463946284607B0BDE8F04F08F06D
:101B080081BE3146D3E700BF00FE0F000EB403B517
:101B180003AB014653F8042B0448019303F0A8FAD9
:101B280002B05DF804EB03B0704700BF1FA90008BE
:101B3800CA0605D48B064CBF02490349FFF7E6BF26
:101B4800704700BF42ED000841EB00082DE9F04F57
:101B580089B09A46DDE914739DF84CB00593169B3D
:101B6800179E069204460D460493BBF1000F00F041
:101B7800858006F00803079308F020FE06F00209A6
:101B88000246002849D086492046FFF7BFFF804615
:101B9800B9F1000F08D016F0440F40D181492A4608
:101BA8002046FFF7B3FF804406F0010353B17E4B94
:101BB8007E4953F82B207E4B2046002A08BF1A4640
:101BC800FFF7A4FF06F00803002B54D0794B7A499D
:101BD80053F82B202046FFF799FF0546069B2BB1AB
:101BE80076491A462046FFF791FF0544BAF1000FDF
:101BF80005D0734952462046FFF788FF05444544FF
:101C0800002F49D1049B002B4FD1F30700F1C1806D
:101C180031462046FFF78CFFB5E08046B8E7694BB0
:101C280018680028BFD0684B4FF47A791B68B5FB59
:101C3800F3F54FF46161B5FBF0F300FB135509FBB5
:101C480005F54FF03C0CB3FBF1F201FB1231B5FB8B
:101C5800F0FEB1FBFCF300FB1E550CFB131109FB56
:101C680005F50091B5FBF0F55849CDE901E52046A9
:101C7800FFF74CFF97E706F00805AFE7BAF1010F49
:101C880006D1002F65D1049B002B7CD000250CE0E9
:101C9800002FF8D04E485DE04E484F493B4622465B
:101CA80008F089F9049B002B69D0DFF83081DFF850
:101CB8003091049F3146102F204628BF1027FFF788
:101CC80037FF4FF0000A554546DC059B49461A7810
:101CD8002046FFF71BFF4FF0010A1AF0070F03D148
:101CE80041462046FFF712FF57453CD9059B494618
:101CF80013F80A202046FFF709FF0AF1010ABAF192
:101D0800100FEAD1374920464FF0000AFFF7FEFED0
:101D18005246059B9A5C344B995C11F0970F08BFAB
:101D28002E2232492046FFF7F1FE0AF1010ABAF1E4
:101D3800100F1DD01AF0070F03D141462046FFF7B8
:101D4800E5FE57455246E4D841462046FFF7DEFEF9
:101D5800EBE720485D46A0E741462046FFF7D6FE60
:101D68000AF1010AAFE722492046FFF7CFFEC4E790
:101D7800059B3B440593049BDB1B049399D1BBF162
:101D8800000F7FF442AF204609B0BDE8F04F08F0DD
:101D9800B5BD074A05492046FFF7B8FE38E700BF3A
:101DA80049EB00084DEB0008D0DD00087CEF000887
:101DB80044EB0008E4DD000872EB000878EB00084B
:101DC8007CEB00089C0E0020980E002056EB0008C3
:101DD80055A900081FA900087950000889EB0008D8
:101DE80081EB00088BEB0008DA06010809EA000815
:101DF80087EB00082DE9F0410F884B688E6886B0A4
:101E080005460C469046C7F382175BB1144A9B1AE5
:101E180043F38F01002920DB2078C0F3C200FFF7CD
:101E2800B5FC03462146608851F8102B0197C2F390
:101E38004A22002A01EB0204C0F30B1008BF00215C
:101E48000022CDE90408CDE9021400923146284663
:101E5800FFF77CFE06B0BDE8F0810023E2E700BF93
:101E6800F802002073B542F20F738B4228BF0B466D
:101E780005680F4A04460521684607F0F5FC6368C3
:101E88000C495B6806460422284608F02AFD636868
:101E98003246694628465B6808F023FD63680649B0
:101EA8005B681722284608F01CFD02B070BD00BF11
:101EB8004C020108A5EB00088DEB0008074A002139
:101EC8000123904206D8064A01B901231360054B45
:101ED8001860704740085B000121F2E740420F009C
:101EE800980E00209C0E0020014B036000207047D4
:101EF800F8DD000813B5044606F0B2FCC0F307236A
:101F08000193C0F307430093044A030E08212046B7
:101F180008F081FE002002B010BD00BFCAEB000827
:101F280010B5044606F082F8084A03460821204600
:101F380008F071FE064A2046082108F06CFE0548A4
:101F4800214606F015FB002010BD00BF65EC000817
:101F580084EC0008611F000870B58EB004460D4679
:101F6800D0F89C600BF002F802460BF059FC254BA8
:101F78001958254B002A18BF1346CDE90043234AB8
:101F8800234B28468C4218BF1346224A082108F0E2
:101F980042FED4E90A23CDE9022394F90E300093D6
:101FA800237B1D4A2846082108F035FE06A9202271
:101FB800204606F025FB626E00920346174A082168
:101FC800284608F028FE05A920460AF0DFFF034648
:101FD80030B1134A0821284608F01DFE0EB070BD26
:101FE800059A6423B11ACDE900214B430D4AB3FB8E
:101FF800F6F30821CDE902632846334608F00BFEC4
:10200800ECE700BF080000008EEC000889EB000830
:1020180031FF000891EC00089DEC0008C9EC0008AD
:10202800E0EC00080DED0008F0B5002593B004467B
:1020380029460AAF1C220BA80BF0E1FB144E1A220A
:10204800202138460BF0DBFB2146124806F090FAB7
:1020580009AA4FF4006130460AF08CFF09996422FE
:10206800C1F5006042434FF40063D20ACDE904038E
:10207800CDE9023106922046CDE90057064AA6F17D
:102088004003082108F0C7FD284613B0F0BD00BF83
:10209800402200208121000844ED000810B50446C4
:1020A80005F0E2FF034A03460821204608F0B3FD85
:1020B800002010BD8DED00082DE9F34117460023DF
:1020C800044601AAB86801930A2101F0A1FC019D08
:1020D800C6B255B12B46154A0121204608F09BFD92
:1020E800019D284602B0BDE8F081042E0AD9104AA5
:1020F80033460121204608F08EFD204608F0A8FD51
:102108000125EEE77868FFF76DFBB0F1000805DA06
:102118007B68084A0121204608F07DFD00213346EE
:102128000FFA88F20846FFF779FBDAE7A3ED000813
:10213800CAED0008E1ED000837B513460022019208
:10214800054601AA58680A2101F062FC019C4CB9B5
:1021580020EAE0700A2180FB010107F0A5F820467B
:1021680003B030BD2346034A0121284608F053FD39
:10217800019CF4E700EE0008F0B50446D0F89C6036
:1021880089B00D4607A90AF001FF034630B1104A8D
:102198000821284608F03FFD09B0F0BD20460AF0A6
:1021A800E5FE0C4F079A002818BF0746B11A6423AA
:1021B800CDE902214B43CDE90076B3FBF6F3064A9D
:1021C800CDE9046308212346284608F024FDE3E707
:1021D800E0EC00088EEC000820EE00082DE9F04342
:1021E80087B00546684606F019F8009E184A194F48
:1021F800DFF86480DFF86490142303FB006608218D
:10220800284608F008FD009CB44203D3002007B01C
:10221800BDE8F08323680BB11A7832B923463A46F1
:10222800142101A807F020FB01AB424608212846EB
:1022380008F0F1FC20460AF07BFE094B094A002809
:1022480008BF4B460821284608F0E5FC1434DBE7B4
:102258006BEF000875EF00087AEF000862EF0008DE
:102268005CEF0008F1F500088B1E022B2DE9F04108
:1022780007468846144637D860681022002107F0C0
:102288008FFBB8F1020F064607D1264A2023082102
:10229800384608F0C0FC336816E00A220021A0681E
:1022A80007F07EFBC5B21F4A2B460821384608F0C6
:1022B800B2FCB8F1040F1AD0102D0DD0202DEAD0A1
:1022C800082D0CD13378DBB2174A0821384608F0BC
:1022D800A2FC0020BDE8F08133889BB2F4E7134AE2
:1022E8000821384608F097FC6FF01500F2E7E0681F
:1022F8001022002107F054FB0D4A0346044608212A
:10230800384608F088FC102D06D0202D07D0082D5F
:10231800E5D1E4B23470DCE7A4B23480D9E73460A4
:10232800D7E700BFB3EF0008DEEF0008C8EF0008EA
:10233800EFEF00082DE9F04F584BDFF864A1914604
:102348004FF0FF35012285B0074688461A602026DF
:102358002C46494652464046FEF7F0FA411C07D142
:102368006A1C52D14F4A0121384608F054FC1DE03E
:10237800732820D0772833D0612817D1DFF828B107
:102388001022DBF80000002107F00AFB05460028B0
:10239800DFD10BF045FA454B1B58162BD9D1DBF88A
:1023A8000030434A0121384608F035FC6FF015002B
:1023B80005B0BDE8F08FDFF8F0B00022DBF80000D0
:1023C800114607F0EDFA04460028C2D10BF028FAAE
:1023D800364B1B58162BBCD1DBF80030354AE1E7E9
:1023E800DFF8C4B00022DBF80000114607F0D8FA85
:1023F80006460028ADD10BF013FA2C4B1B58162BB0
:10240800A7D1DBF800302C4ACCE7631C01D12B4A5A
:10241800A9E75FFA86F8C6F3C406002C3CD06B46E1
:1024280029461A46A6EB050C0CE0B8F1100F1DD092
:10243800B8F1200F20D0B8F1080F2AD10878187009
:1024480031443344A64203D80CEB01001028ECD9E0
:10245800102CA14628BF4FF0100929464B46384694
:1024680001F0CAF81035A4EB0904D6E7088880B251
:102478001870000A5870E3E7086818704FEA102EC1
:1024880083F801E04FEA104E000E83F802E0D8709E
:10249800D6E70B4A082167E7204689E7D0000020E5
:1024A8003DF0000844F00008780E00200C00000001
:1024B80003F0000816F0000829F0000861F0000891
:1024C800C8EF000870B5104E044633780D4681B148
:1024D8002BB1BDE870400D4A012108F09CBB0123D7
:1024E80033700B4A0821204608F095FB012333700E
:1024F80004E083F001033370002BF2D12946204613
:10250800BDE8704008F0C1BB4E1500207BF0000804
:10251800B6F0000870B504463C480378182B02D181
:102528000B78112B31D0013A0B468D18AB4225D1CF
:102538008B5C0A780370A2F13003092B344C04D960
:1025480022F02003413B052B04D823683149CA54A3
:10255800013323602368022B34D110222D48002137
:1025680007F01EFA2C4A136803F8010B13602B4A74
:102578001368013313600023236023E013F8016B11
:10258800182ED3D11E78112ED0D1244D244A2B6871
:102598000821204608F03FFB20460021FFF792FF64
:1025A800204B187870B9204A2B681168042B0ADC74
:1025B80008B111602B6013F003010BD11268136886
:1025C8001BBA136070BD086800BA41F8040B043BDD
:1025D8000120EBE75B4203F0030358BF594202298D
:1025E80004D1126813885BBA9BB2EAE70329E9D1E0
:1025F800106802681104C2F3074301F47F010B431A
:1026080002F47F4213430360DCE700BF4F1500204C
:10261800A00E002051150020AC0E0020A40E0020B2
:10262800E0F0000850150020A80E00202DE9F84F12
:102638000C462B49DFF8AC80DFF8AC90DFF8ACB083
:1026480000230B602A4988F8003006460B601546BF
:10265800012C2F4655F804AF1ED902224946504690
:102668000BF00AF880B99AF80220003A18BF012244
:1026780092442049022250460AF0FEFF30B9012355
:1026880088F80030013CE3E70022F1E7494650466C
:10269800FDF71BFFA8B9043700221146786807F038
:1026A8000FF9154B002211461860786807F008F9F1
:1026B800124B134918603046FFF704FF0020BDE8AD
:1026C800F88F9AF800202D2AE6D19AF80120002ADE
:1026D800E2D053465A460821304608F09CFAD1E722
:1026E800A00E002050150020FAF0000800F10008A4
:1026F800A40E0020FDF00008AC0E0020A80E00205B
:102708001D25000807B50A480AF012FC60B1094AFD
:1027180007491268084804230093012300F03CFE8F
:10272800002003B05DF804FB6FF01200F9E700BF6A
:10273800B0D9000844DF0008BCDC000810B54468C4
:10274800C4E90012A36042684023D36402F158032D
:10275800136300230821C2E90E33C2E91133C2E929
:102768000633C2E90933D1621468536302F1500198
:102778001364116153611362C2F8D030A36823B1A6
:102788009B6C13B1044920469847A3689B6A0BB118
:1027980020469847002010BDA52700082DE9F743DB
:1027A80004460D4683685B6C03B19847A3685B6B6E
:1027B8000BBB4FF0000905F13008EA6C01A940464F
:1027C80007F0C7FC0746002836D0A36801999B6923
:1027D8003BB3024620469847064628B33146404652
:1027E80007F0D6FCB7424FF00109E6D0D5E9013130
:1027F8000020984703E0204698470028D9D1A368CD
:102808005B6A63BB05F11007EA6A01A9384607F05D
:10281800F3FC064650BB204608F0B6F8C5F8D06071
:102828002FE06FF05706D9E70146404607F0B0FCA5
:10283800B9F1000FE3D0D9E71648036813F0060F83
:1028480003D0154A022108F02DF8A3689B69002BD4
:10285800EED001220DF1030120469847E8E7204613
:1028680098470028CED103B0BDE8F083A36801994A
:102878005B695BB10246204698470146384607F037
:10288800DBFCD5E9013101209847ECE76FF05701EF
:10289800F4E700BF2003002061F2000810B581684A
:1028A8000446083101F08CFBA168034A2046083130
:1028B800BDE8104001F02ABBA3F2000838B58368D0
:1028C800D3F86432DB0704461DD4C06908F055FD0F
:1028D800606803685B689847054620B9E06808F0B7
:1028E800AEFEA3681D71A3685B6B13B12946204631
:1028F8009847A3680AF094FF0022C3F80C23034BFF
:10290800185802F0E7F86FF00F05ECE70800000030
:10291800014908F0D9B800BF42ED0008F7B50446F0
:102928008068D0F864325A070D4605D5002108F0B2
:10293800EFF8E06808F055FEE368DB6873B9002D2E
:1029480039D0A66806F14207384608F0B7F80028DB
:1029580033D0394606F5A170FDF7C1FDA268E068DD
:102968000DF106034232294608F03EFE58B9A06828
:1029780000F5A1714230FDF7B2FDA068423008F0C1
:102988009DF8ADF80600204608F0F1FAA368D3F8E0
:1029980060329B0603D50A49606908F095F820461D
:1029A80001F0DAF8A268BDF80630D387A26820469D
:1029B800938708F086FA03B0F0BD86F84201CDE7A8
:1029C80054DD00082DE9F04FA7B004465422002139
:1029D80011A80AF014FF0023CDE90533A3682046A7
:1029E8004233029308F0C9FA204608F053FA10B9A6
:1029F8006069FFF78DFFA0681422002108300AF0F3
:102A0800FEFE204600F0CCFFA168E0688A8F4231C4
:102A1800002608F020FE204608F09FFE4FF0FF3702
:102A2800B24603960DF14408B3463546B146DDE992
:102A38000532012A6DD0132B6ED85FBBBBF1000F96
:102A48000AD0204608F0A9FEA2681423423211A930
:102A58000DEB030000F058FEB9F1000F0CD099F807
:102A68001130FE2B08D1059B26AA02EB830252F8EF
:102A7800542C0AB101330593A068059D4369002BC6
:102A880040F0B680CEB1C3689E422DD00D9600F1BD
:102A9800080524E0029A0223414606A800F034FE05
:102AA8000699D8F804200292034631B101290AD1C7
:102AB80048B16C4A204608F008FB6FF00705284625
:102AC80027B0BDE8F08F059B002B34D0D8F8000064
:102AD80001F096FA98B166B1A5680D9608350CAE66
:102AE8000FCE0FC533682B602046FFF7D7FE0125B0
:102AF800E5E75D4A0121204608F0E7FADDE7059B96
:102B0800CBB1D8F800202946204601F02BFC02283A
:102B180009D1059B132B91D9069B022B8ED1534BC0
:102B2800534A0121C6E7032805D0059B01330593C5
:102B38004FF0010B7BE7039B33B9D8F8001007AAC5
:102B4800484608F02FF9054608F10408013F9DB3EF
:102B5800EB68BBF1000F08D0F3B1204608F00DFA7E
:102B6800204608F0AEF9434AC4E7ABB1A368DDF8E4
:102B780014A0AE4603F1080CBEE80F00ACE80F0045
:102B8800DEF80030CCF80030AB682BB96B7CFE2B3C
:102B980004BF2F7C07F1FF37D5F804C0BCF1000F44
:102BA80008D0AE46BEE80F000CAE0FC6DEF8003007
:102BB80033606646A94603E0059B53B1012303939E
:102BC800069B17B9022B7FF432AF059B013305939F
:102BD8002DE7A368DB6913B1DB68002BEED1264B28
:102BE8000093264A119B0121204608F06EFAE5E77A
:102BF800037EA5EB0A05B3B1417E4FF6FF72FF29AC
:102C080018BF0A469D4202D313449D420BD98368DC
:102C18001B4A0121204608F058FA2046FFF73EFEDD
:102C28006FF015054BE7012107F067FFA06800F575
:102C38003E7007F086FFA36811AA294602EB8A02B4
:102C48005B69204698470546A0684FF0FF324FF071
:102C5800FF3300F53E7007F044FFA068002107F03D
:102C68004CFF2CE7B1F20008C5F2000826F3000873
:102C7800FCED0008E3F2000812F3000809F600086A
:102C88004AF3000810B5836802221A7183689B6BA7
:102C98000446BBB907F0D5FE8368D3F86432DB0479
:102CA8000BD50321084B094A08F00FFAA0686FF406
:102CB800805100F5197007F0DCFE2046BDE8104091
:102CC80001F094B810BD00BF65F300087CEF000860
:102CD8002DE9F04F04468068B1B0012100F5197064
:102CE80007F0B8FEA3681B79022B20D100230993B3
:102CF800A36860689E6B03681D6909AB0EB3102258
:102D08001BA9A847099B93B1A068012107F0F5FE0C
:102D1800099A1BA92046B047A068002107F0EDFEDC
:102D2800A3689B6B002BE3D12046FFF7ABFFA0689D
:102D38006FF0010100F5197031B0BDE8F04F07F0F0
:102D480098BE01220DF12301A847099B002BEED064
:102D58009DF923109DF82330A2680029C8DB51791A
:102D6800032900F20A83DFE811F004008902A102B6
:102D780008030D2B55D00A2B32D0B2F864126FF32A
:102D8800CA01A2F86412092BA0685FD013D8002BDF
:102D9800AED0082B00F0D7815A1C8949A068D2B25E
:102DA8008A5C12F0970F00F0DA81012107F0B0FE7B
:102DB8009DF82310FAE01B2B45D07F2BECD1D0F8DF
:102DC80060329D0794D5012107F0A2FEA368D3F8CD
:102DD8006032190700F1BF81204608F0B8F987E78B
:102DE800D2F86412C1F3C70129B1D2F86412C1F351
:102DF800C7010A29D0D1B2F8641263F3CA01A2F854
:102E08006412A568A98FC1B9284607F081FEE06859
:102E180008F0E7FB6069FFF77BFD2046FFF732FF0C
:102E280066E7D2F86412C1F3C7010029E3D0D2F8EB
:102E38006412C1F3C7010D29DCE72046FFF7C2FD84
:102E4800C5F81003E9E70123437151E7D0F8603270
:102E58009A077FF54DAF012107F05AFEA068838FCE
:102E6800FF2B3FF445AFC28F00F1420100F5A1707E
:102E78000AF09DFCA368DA8F1344002583F84251B9
:102E8800A2681BA9142302F5A1720BA800F03CFC50
:102E98000B9914293FF62CAF30AB03EB8103DFF815
:102EA80024A143F8545CA368DA8F134493F84130A3
:102EB8001AF8033019B11B0752D401294FD1002544
:102EC8000A950A9B30AA02EB8303002653F854BCE8
:102ED800584607F0F3FD374681460496B04616AAD1
:102EE8004146284600F0ECFC0346002844D1012E58
:102EF800D4F8088068D10A9B30AA02EB830353F800
:102F0800540C07F0DBFD08F108020646394628464E
:102F180000F0D6FC0568284607F0D0FD864205D0AB
:102F2800821B92B2A919204608F00FF9A068C38F36
:102F3800034493F842301AF8031011F0080139D10C
:102F4800D0F86032DF0730D507F0ECFD20212046AD
:102F580000F016FFA068012107F0E4FDC8E601397A
:102F680000200CAB009301900AAB1BAA07F045FFA9
:102F780005460028A5D1BBE61B6803934A46594677
:102F880018460AF079FB68B9039B1846FDF7AFFAB3
:102F9800049B834238BF03469BB2002E08BF4746B6
:102FA8000493013608F1010899E72021204600F032
:102FB800E7FE9DE60121204607F0B5FF98E600BF31
:102FC800D9060108DA06010805907FF691AE0A9A3B
:102FD80030AB03EB8202B94652F8543C03931846CF
:102FE80007F06CFD059B0690A8F830300596A2689E
:102FF80049460832284600F063FC039BD0F800B02D
:1030080009F101094BB1BBF1000F06D0069A194628
:1030180058460AF031FB0028E9D1D4F808A0BBF1E2
:10302800000F4ED1AAF830B0059B013B0593DED1C5
:103038006069FFF76DFC204600F0D8FE0A9B30AAB5
:1030480002EB830307F1010953F8540C07F036FD2E
:10305800394611AA8046284600F032FC0746A06887
:103068003968FF2200F5A1700AF018FB3B6803934A
:103078004FF6FF77BA4616AA4946284609F1010BCA
:1030880000F01EFC002852D0A168036801F241112B
:10309800002211F801EF985C704503D110B101329C
:1030A8005245F6D1B8F1000F01D0424507DBBA42CC
:1030B80006F1FF36A8BF3A46012E97B237D0D94657
:1030C800D9E7AF4807F0FAFC049B00EB0308BAF80D
:1030D8002A301FFA88F81B1A584693FBF8F39BB25C
:1030E800079307F0EBFCBAF83010079BB1FBF3F23B
:1030F800A8EB0008481C03FB121189B21FFA88F8D4
:10310800AAF8300061B99E4B9E4ACDF800B006215E
:10311800204607F0DAFF4146204600F0CBFC83E763
:10312800994A5B460621204607F0CFFFF3E7002FB8
:103138003FF4DEAD0399A7EB080292B24144204662
:1031480008F003F8D4E5D0F860329E077FF5D0ADDB
:10315800012107F0DDFC204608F014F8C8E5D0F896
:10316800602292077FF5C4AD013B162B3FF6C0AD38
:1031780001A252F823F000BF55330008DD310008E2
:10318800E5310008E12D0008493300080332000842
:10319800F92C0008F92C0008F92C0008F92C000873
:1031A8000B32000813320008F92C00083D320008E1
:1031B800F92C000847320008F92C0008F92C0008FF
:1031C800F92C0008F92C00084B320008F92C0008EB
:1031D80075320008204607F0D7FE89E5204607F03B
:1031E800CCFE204607F056FE10B96069FFF790FB49
:1031F800A068012107F08CFC0FE6204607F0CCFE02
:1032080076E5204607F0D1FE72E5D0F860329F06D9
:1032180003D55E49606907F057FCA368D3F86032AC
:103228009E0603D55A49606907F04EFC204600F017
:10323800DDFD5DE500212046FFF770FB58E5012123
:10324800F9E7204607F093FE204607F0FAFB012134
:10325800A06807F05DFCA368D3F860329D067FF58F
:1032680047AD4C49606907F02FFC41E5204600F066
:10327800EDFCA068012107F04BFC39E55B2B02D17E
:103288000223537134E5D2F86022900706D5622BE9
:1032980008D14FF0FF31204600F022FCA36800223D
:1032A8005A7125E5662BF9D10121F4E70021517106
:1032B800A268D2F8601289077FF51AAD313B1B2B43
:1032C8003FF616AD01A151F823F000BF51330008B5
:1032D8005D3300087133000845330008F92C0008F5
:1032E800F92C0008F92C0008F92C0008F92C000822
:1032F800F92C0008F92C0008F92C0008F92C000812
:10330800F92C0008F92C0008F92C000847320008AD
:103318003D32000803320008DD310008F92C0008AE
:1033280049330008F92C000855330008F92C000827
:10333800F92C0008F92C00086133000803235371A5
:10334800204607F01AFED3E403235371204607F002
:103358000EFECDE403235371A068D0F8601201F08B
:10336800010181F00101F7E503235371A368D3F844
:1033780060329B077FF5BCAC2EE5002381E700BFD8
:1033880088EB0008A9F300087CEF000859DD000865
:103398005EDD000854DD00082DE9F043044680682E
:1033A8008846D0F80C1389B015461F46002967D106
:1033B8004FF445720AF023FAA36822681A60E0689D
:1033C80008F0B1F9A06800F53E7009F0F8FD4FF477
:1033D8002A794FF41A76A06830440AF01FF9A068D9
:1033E800002283190121484410360AF0EDF8B6F599
:1033F8002A7F09F11409EED1A36900261E60A0688E
:10340800022100F5197007F025FBA36850225A85A0
:10341800A36818221A85D4F80890D9F8000007F094
:103428004DFB89F82C00A368174A66F38205C3F898
:1034380060526068036841461D682346A8470546F0
:10344800D0B9A36801221A71D4E90A010022002325
:10345800CDE906230E230393109B0495CDE9017350
:1034680000940A4B4FF4006205F082F9A368C3F890
:103478000C03616A05F0B4F8284609B0BDE8F0838A
:103488006FF07705F8E700BFEFAA0008ED340008F1
:1034980010B5044680680379012B1DD14FF0FF3227
:1034A8004FF0FF3300F53E7007F01BFB2046082164
:1034B80000F08EFB206807F001FB18B1084960692D
:1034C80007F002FB2046FFF7DDFBA06800F53E7021
:1034D80007F037FB002010BD6FF08500FBE700BF49
:1034E80041ED00082DE9F0410446406803680E46A6
:1034F8009B6800211546984700284CD126B1E06901
:103508002A46214607F022FF2046FFF7C1FF002880
:1035180041D1224E224FDFF88C80A06800F52A7036
:103528004FF0FF324FF0FF33032106F0F9F805465C
:10353800A0684FF0FF324FF0FF3300F53E7075B1D1
:1035480007F0CFFA20462B46174A012107F0BDFDA8
:10355800A068BDE8F04100F53E7007F0F2BA07F048
:10356800C0FA32460221204607F092FA3A46294626
:10357800204607F08DFA20464246012107F088FAD6
:10358800606803685B6903B19847A06800F53E70FE
:1035980007F0D7FAC1E7BDE8F08100BFC5280008E9
:1035A800D92C00084FAB0008AFF3000810B50D4A3E
:1035B8000446082107F02FFB20460B4A082107F094
:1035C8002AFB2046094A082107F025FB2046084A1D
:1035D800082107F020FB2046064A002100F096FC4F
:1035E800002010BDC6F3000804F4000863F40008C6
:1035F800B7F4000851F50008F8B51E4617460B4603
:103608002F4A0821044607F006FB6EB33B782D4A83
:103618000821204607F0FFFA01256A0704D12A4A43
:103628000821204607F0F7FAAE4223D97B5D254AE8
:103638000821204607F0EFFA0135102DEDD1234A75
:103648000821204607F0E7FAD6B91F4A0821204684
:1036580007F0E1FA0125AE422B4613D81A4A082191
:10366800204607F0D8FA19E0194A0821204607F041
:10367800D2FA0125164A0821204607F0CCFADBE7E2
:1036880000252B46FB5C134AD25C12F0970F08BF4B
:103698002E23114A0821204607F0BDFA0135102DC6
:1036A80007D06B07D7D1084A0821204607F0B3FA9C
:1036B800D1E72046094ABDE8F840082107F0ABBA2F
:1036C80067F5000881EB000889EB00088BEB000820
:1036D80087EB0008DA06010809EA00086EF5000819
:1036E80010B5044613460A460146064801F0C0FCD8
:1036F80023691B7923B12046BDE8104007F0CBBAF7
:1037080010BD00BFB7AC00082DE9F04F85B000260A
:10371800DFF8A8A101910746144699460660B3460A
:103728002378002B00F0C6801AF8033013F0080342
:1037380004D004F801BBF3E70026F1E73A68511C0E
:103748003960019941F822403A684A4500F0B28050
:103758001E4621780029E3D0A6B90E4623461C460A
:10376800272E04D05C2E20D0222E40F097802046B1
:1037780007F0BBFA611C024620460AF026F82178B9
:103788000029CDD0B142A04604F101041BD1404626
:1037980007F0ABFA2146024640460AF016F898F8B8
:1037A80000604446002ED9D1BAE7204607F09DFABA
:1037B800651C0246294620460AF007F866782C461A
:1037C800002ECDD1ACE75C2998F80110D8D1B142D0
:1037D8008C4608D1404607F088FA21460246404602
:1037E80009F0F3FFB5E7302925D10025022218F8A2
:1037F80002C0ACF13000C0B2072819D8ED00013280
:10380800EDB2052A45EA0005F1D1511E4144404672
:103818000392029107F069FA039A0299023A821A0E
:10382800404609F0D2FF98F8011088F80050A7E741
:10383800D2B2022AE9D1BCF1780F2AD100250220A0
:1038480018F80020A2F1300C5FFA8CFCBCF1090FCB
:1038580009D82D01EDB24CEA0505022801D0042251
:10386800D3E70320ECE7A2F1610CBCF1050F05D802
:103878002D01EDB2573A1543EDB2EEE7A2F1410C36
:10388800BCF1050F03D82D01EDB2373AF3E7022852
:1038980002D108F1010473E70322B6E71AF80630EB
:1038A8001B073FF549AF6678631C002E7FF457AFBE
:1038B8001C4635E7304605B0BDE8F08FDA0601084A
:1038C80038B50B46154648B91449154A521AB3EB90
:1038D800920F05D251F82350284638BD84680CB998
:1038E8000025F9E70F4A94420AD30F4A944207D2B7
:1038F80018462268294690472B68002BECD1EFE741
:103908000A4A944202D30A4A944205D324681422EC
:103918005343E518E358F0E70133F8E7ECDC000817
:1039280014DD000828DD000828DD000814DD000883
:1039380028DD00082DE9F843074648B107F0D5F916
:103948000025DFF8589004462E46631E9D4201DB91
:10395800BDE8F883284601353B5C19F803301B079E
:10396800ADB2F2D529468BB2A342EED27B5C19F8F0
:10397800038018F0080803D001360131B6B2F2E727
:10398800002EE2D08AB2A21A0130A41B01323944B7
:10399800384409F01AFFA4B24646D6E7DA06010809
:1039A800F8B5846894F84230054653B9AB689A8FE5
:1039B800DA87F8BD013A92B2A2872AB984F8422080
:1039C800F4E7124E04F14200A28F831813F8013C69
:1039D800F35C13F00803EDD183549AB210FA83F123
:1039E80010F802C016F80CC01CF0080F1F4603F1AF
:1039F8000103F2D1BFB2002FD8D0A68F731C9A1A38
:103A0800F61B09F0E2FEA687D0E700BFDA06010838
:103A1800F7B51646027800232D2A0446019305D1EE
:103A28006FF015033360002003B0F0BD09F0F8FE15
:103A38000B4F0546C3510A46204601A905F0B0FFC1
:103A4800EB59222B02D16FF02103EBE7002BE7D1D2
:103A5800019BA342E4D01B78002BE5D0E0E700BF30
:103A68000C0000008368D3F860329B0603D5024936
:103A7800406907F0F0B9704764DD0008014907F0B4
:103A8800EAB900BF42ED00080A1E0DDC0ED0422341
:103A98008168D1F86012890608D5002A044940696E
:103AA800B8BF524207F0D7B94123F1E7704700BFCA
:103AB8008AF500080A1E0DDC0ED044238168D1F86F
:103AC8006012890608D5002A04494069B8BF5242E5
:103AD80007F0C1B94323F1E7704700BF8AF5000832
:103AE8002DE9F0410C1E064631DA644224B24FF04B
:103AF800FF35DFF86080A4B2AFB212E0B368DA8FA6
:103B080003F1420C9B8F1146002071B9B5F1FF3FBC
:103B180000D073B9891A09B2304607F004FA013C9B
:103B2800A4B2002CEAD1BDE8F0818B4201D1012D6D
:103B3800F0D01CF801E018F80EE01EF0070F04D1D1
:103B48000028E7D1394489B2DFE70120FAE70125E7
:103B5800CFE700BFDA0601082DE9F0478568DFF8EE
:103B68006890044605F14200FCF7C1FC002395F873
:103B78002C7086B29846A268558DED1BB54209DBBC
:103B8800002E1FDD423360691049BDE8F0471A4432
:103B980007F061B91D442A44423392F842A082F8E2
:103BA8004280A26860691A44494607F054F9A3683C
:103BB8002B4483F842A0A3685B8DDB1BF61A002711
:103BC8002B46D8E7BDE8F087FCED00087CEF00083D
:103BD80008290A4617D8836893F82E10914212D004
:103BE80083F82E208368082AD3F8603205D0990616
:103BF80009D50549406907F02EB99B0603D5034945
:103C0800406907F028B9704791F5000869DD000898
:103C180038B50D4609780446FFF7DAFF6A78072AAF
:103C280011D8A36893F82F1091420CD083F82F2055
:103C3800A368D3F860329B0605D560690249BDE8E0
:103C4800384007F008B938BD9AF50008F8B5836818
:103C58009A8F0446002A51D0D98F00294ED041317D
:103C680003F142050B441846A84206D3014611F851
:103C78000169202E39D0A84239D286B29DB2AB1B39
:103C88009BB2591C471CD21A0144384609F09DFDC5
:103C9800A268938F711B13FA81F39387A3689A8F95
:103CA8001344002283F8422009B2204607F03BF96A
:103CB800A368D3F860329A0603D51149606907F002
:103CC800CAF83B460F4A0821204607F0FEF920466D
:103CD800FFF7C8FEA368D3F860329B060ED560696B
:103CE8000949BDE8F84007F0B6B80846BCE7014600
:103CF80011F80169202EC0D00846BCE7F8BD00BF06
:103D08006EDD00087CEF000872DD00082DE9F04147
:103D180004460D4617460AB1FFF7A4FEA368DA8FDA
:103D2800D3F86012423213444A071FD51846FCF7ED
:103D3800DEFBDFF84480064696B9A3689A8FDA87D7
:103D4800A06807F095F820B107B115B16069FFF7D1
:103D580095FE6942204609B2BDE8F04107F0E3B894
:103D68006069414607F077F8013EE5E7034A082114
:103D7800204607F0AAF9E0E731FF00087CEF0008C9
:103D880013B583688DF80710D3F860220446D0076E
:103D980022D5D98F9A8F8A421ED0481CD8870B44C7
:103DA8009DF8072083F84220A368D3F8601289079A
:103DB80010D5D3F8603260690B4913F0040F18BFAF
:103DC8002A2207F048F8204607F064F810B1606925
:103DD800FFF754FE02B010BD01220DF10701204685
:103DE80007F080F9F6E700BF09EA000810B5836814
:103DF800094A1B680446022107F067F9A368D3F84B
:103E080060329B0707D52046FFF7A6FE2046BDE88F
:103E1800104007F065B810BD7CEF0008014907F0B5
:103E280020BB00BF42ED00082DE9F047054690464B
:103E38000E46002965D0DFF8D0900024335D19F8CC
:103E480003301A071ED43046FCF751FBAB685A8D75
:103E580080B2001BA2EB0803984206EB040A13D9B0
:103E68005146002711F8010B19F800C01CF0080F83
:103E780002D00A282DD03B4608EB0700824227D9FA
:103E88000137EFE70134D9E753460027B84214D089
:103E980013F8012B0A2A19D1686906F0FCFE51466D
:103EA8003A46284607F0A6F86869FFF7B7FF0134D5
:103EB800414628463C44FFF7FDFD6869311907F083
:103EC800D0FA6869BDE8F047FFF7A8BF0137DDE71A
:103ED8001F46686906F0DFFE3A465146284607F055
:103EE80089F83C44335D19F803301B0707D4686927
:103EF800FFF794FF41462846FFF7DCFDA3E70134AE
:103F0800F0E7BDE8F08700BFDA0601082DE9F04FB9
:103F18000E46002189B0044617460D4603AA3046CE
:103F280001F10108FFF7CCFCB0B995B127B13A46C9
:103F38000821204607F0C9F81E4FDFF87C90DFF80B
:103F48007CA0002103AA304601F10108FFF7B8FC64
:103F580060B909B0BDE8F08F006810B1FCF7C7FA86
:103F680080B2854238BF05464146D7E703688BB122
:103F78001A787AB1D0F804B04A46CDE9005308213E
:103F88003B46204607F0A1F8BBF1000F04D1606959
:103F9800FFF744FF4146D5E7524620463B460821F5
:103FA80007F093F86A1D92B259462046FFF73CFF86
:103FB800F0E700BFBCF50008A3F50008AAF5000863
:103FC800F7B50F6805460E46A7B13846FCF78FFAD5
:103FD80084B2094B00932846084A3B46082107F05B
:103FE80074F8E21C716892B2284603B0BDE8F0404C
:103FF800FFF71ABF3C46ECE7B8F50008AAF300083B
:1040080010B507490446FCF760FA38B1054920465F
:10401800FCF75BFAB0FA80F0400910BD0120FCE71C
:10402800AEF50008B1F5000810B58368D3F8603222
:104038009B06044603D50649406907F025FAA3689C
:1040480050225A85A36818221A85002010BD00BF87
:1040580076DD000808B58369034A1B68082106F065
:10406800DAFD002008BD00BFBFF500082DE9F341C7
:104078000F4A104C104EDFF844800821054606F020
:10408800CAFD0023B44203F1010703D3002002B0A4
:10409800BDE8F081626A0192A268126800929BB240
:1040A80042460821284606F0B6FD30343B46E9E78B
:1040B800CFF50008BCDC0008ECDC0008E7F50008D8
:1040C80008B5024906F0B4FD002008BD43ED00081C
:1040D8007FB50F4E04460025A268E0680DF10E0377
:1040E80002F5A172012107F07FFABDF80E00A3685E
:1040F80050B103F5A173009332462B4608212046A0
:1041080006F089FD0135E7E783F8420104B070BD88
:10411800F8F5000810B5044606F0AFFD034A03465B
:104128000821204606F077FD002010BDF6F00008B3
:10413800022907B50DD1536801930E4B00931368FC
:104148000D4A012106F067FD6FF0150003B05DF818
:1041580004FB8368094AD3F8603213F0020F4FF06A
:104168000801074B08BF1346064A06F054FD002015
:10417800ECE700BF0FF6000806F6000802F6000894
:1041880017EF000824F6000810B58368D3F86032EA
:104198009A06044603D50749406907F075F9A368EC
:1041A800D3F860329B0603D50349606907F06CF9C0
:1041B800002010BD7DDD000882DD0008F0B5012972
:1041C80085B004460CD053680193604B0093136884
:1041D8005F4A012106F01FFD6FF0150005B0F0BD24
:1041E8008368D3F86032990603D55A49406907F0C5
:1041F8004BF96FF0F9012046FFF746FCFA212046FB
:10420800FFF758FCA06800254FF48072294600F596
:10421800A1708DF80B5009F0F2FA4F49606907F068
:1042280033F9606906F037FD4FF47A766068036801
:1042380001221F690DF10B0103ABB847039BF3B9CA
:10424800013E4FF47A70B6B208F063FE002EEDD14D
:10425800A368D3F860329B0603D54049606907F02C
:1042680013F9A36850225A85A36818221A85204694
:104278003B4A032106F0CFFC6FF00700AEE79DF83C
:104288000B20A3681B2A53D093F842111B29CDD1C8
:10429800522A4DD15A19002382F84231A66896F85D
:1042A80043215B2A2BD106F24310022510F8011F87
:1042B8002A463B2905F10105ADB223D1FF2AC7D013
:1042C80002F5A17216FA82F1002211F8010F18BB4B
:1042D80086F84201FA2AA16828BFFA224A85FA2BF1
:1042E800A26828BFFA231385A368D3F860329A0618
:1042F80003D51A49606907F0C7F800206EE786F809
:104308004231A5E703EB8303303901EB4301B5F5EF
:10431800807F8BB2CAD19BE7013502EB8202ADB236
:10432800303800EB4200B5F5807F82B2CDD18FE7FF
:104338002B440135ADB2092D83F842217FF676AFC3
:10434800A368002283F8422182E700BF0FF6000825
:1043580006F6000888DD00086FF600088CDD000806
:1043680035F600082DE9F04F074689B0154689460D
:1043780021B1104607F0DDF900285BD1032455E090
:104388005C463CE029460AF5A17009F0A3F9064607
:10439800002854D0FCF7ABF882B2601C01323146D9
:1043A800304409F012FA22465946304609F0FFF91E
:1043B8004FF020033355BAF8403001331C44AAF8B3
:1043C800404008F10108002401994B1C03AA484603
:1043D8000193FFF775FA0646E8B1316800222846CE
:1043E80007F036FB0028EFD1D6F800B0D7F808A0C0
:1043F800BBF1000FC4D05846FCF779F884B2BAF87C
:1044080040302344FF2BBDDD0E4A2B46032138469E
:1044180006F05BFE0124B8F1000F07D0B8682A4601
:1044280000F1400100F5A17006F095FC204609B0A6
:10443800BDE8F08F4FF0000841460224C5E702248A
:10444800E9E700BF37FB00082DE9F843054600AF50
:104458000C46002948D0DFF8A090D9F8003058075A
:1044680042D06E468AB0D1E90001A3686A46DFF8F7
:104478008CC04FF00508C2E905C0C2E9071342F82D
:10448800108F00234FF421514846FDF771FAD9F8EF
:1044980000305907B54627D08AB0D4E903016369CB
:1044A8006A46DFF85CC0C2E90713C2E905C042F8F2
:1044B800108F00234FF421514846FDF759FAD9F8D7
:1044C80000305A07B5460FD0E3690E4A0121484625
:1044D80006F0F1F9D9F800305B0705D0A3690A4A5C
:1044E8000121484606F0E7F92146284603F0B6FEC2
:1044F800BD46BDE8F88300BF1403002089FB00080F
:10450800B8FB0008E7FB0008F6FB000830BFFFF720
:10451800FDBF00BF124B134A2DE9F041D518DFF853
:104528004880013DB5FBF3F55D43104B08EB0304F0
:10453800013CB4FBF3F403FB04540E1B07460C497F
:10454800304609F034F9701942460021083E09F056
:1045580056F9C7F8A86004F10800BDE8F08100BF6B
:104568000100000000000000080000000400000036
:1045780028DD0008044B99685869884203D003492C
:104588004FF080520A6070471015002004ED00E0DB
:10459800F8B5314C23685B0706460D4603D02F4912
:1045A800204607F014F92E4B9B6ADF0451D5236887
:1045B800580703D02B49284807F009F91720284B3A
:1045C8009B6A190507D523685A0703D0264922484C
:1045D80007F0FDF81820224FBB6A9B0519D5236800
:1045E800590703D021491C4807F0F1F8BB6BBA6A98
:1045F80012040DD52268570704D01D4A1648012118
:1046080006F059F926B1164A936A23F400439362D7
:104618001920134B9B6A5E0507D52368590703D0F9
:1046280014490D4807F0D3F81A200D4B9B6ADA0598
:1046380007D523685B0703D00F49074807F0C7F879
:104648001B20074A936A43F47F43936200232B702D
:10465800F8BD1620B3E700BF1403002024FC0008AF
:1046680000ED00E03AFC00084BFC00085EFC000886
:1046780077FC00088CFC0008A7FC000810B52D4C3E
:1046880023685A0703D02C49204607F0A0F82B4B83
:104698009B6A9B014BD52368580703D028492548B6
:1046A80007F095F81E20254B9B6AD90107D523688A
:1046B8005A0703D023491F4807F089F81F201F4BCA
:1046C8009B6A1B0307D52368580703D01E4919485E
:1046D80007F07DF82120194B9B6A590307D52368F9
:1046E8005A0703D01949134807F071F82220134BD1
:1046F8009B6A9B0307D52368590703D014490D48C3
:1047080007F065F823200D4B9B6ADA0307D5236869
:104718005B0703D00F49074807F059F82420074AD8
:10472800936A6FEA03436FEA1343936210BD1D2037
:10473800B9E700BF14030020BFFC000800ED00E04B
:10474800D7FC0008EAFC000804FD000822FD000868
:1047580047FD000861FD00082DE9F0473B4D2B6837
:104768005C0780468946174603D03949284607F032
:104778002EF8384B9B6AD80639D52B68590703D0D1
:104788003549324807F023F81124324B9B6A1A073F
:1047980007D52B685B0703D030492C4807F017F87A
:1047A8001224DFF8B0A0DAF828309E0721D52B684C
:1047B800580703D02A49254807F009F8DAF8346081
:1047C800DAF8283019063ED52B685A0705D0254A4D
:1047D8001E483346012106F06EF8B9F1000F04D0E7
:1047E8001C4A936A23F080039362132403E0102485
:1047F800CBE76FF01506174B9B6ADB0707D52B68CD
:10480800580703D01849114806F0E1FF1424114B4A
:104818009A6AD10602D49A6A92070AD55B681B0580
:1048280007D54146304600F035FA10B180F30988C3
:104838000224084A936A43F0FF03936200233B7003
:104848002046BDE8F0876FF01506CEE71403002078
:104858008CFD000800ED00E0A2FD00084BFC0008FC
:10486800D5FD0008EDFD000803FE00082DE9F04124
:10487800744B8AB0D3F8048000AF0446C8F3080626
:10488800002585F31188BFF36F8F02F07F43B3F1E2
:104898007F4F0AD102F00C03082B15D16A48036830
:1048A800590702D0694906F092FF00252C460023DB
:1048B800FB71F31E092B00F29F80DFE803F00A91D9
:1048C800948D9D9D9D9D9D9712074CBF0C4601257B
:1048D800EDE75D4E33685B0703D05D49304606F06F
:1048E80076FF0023FB71574BDA6A900708D53368C7
:1048F800590703D05749544806F069FF00233CE0A4
:10490800DA6A002A04DA33685A07F7D05249F2E71C
:10491800DB6A5B00F2D53368580703D04F494A4831
:1049280006F055FF474BA1695A6942F480725A61F3
:10493800BFF34F8FBFF36F8F5A6931F8021C22F40F
:1049480080725A61BFF34F8FBFF36F8F4DF60272BB
:10495800914208D09A6AD2B28AB3FA1D0121204640
:10496800FFF7FAFE3AE03368590705D023683C4A56
:104978003548012105F09FFF2368FA79DAB907F174
:10498800080604F1200C20686168324603C2083426
:1049980064451646F7D17A6A002D4DD0C2F3080156
:1049A80021B96FEA52226FEA42227A6207F10801BE
:1049B8001846FFF749FD2837BD46BDE8F0819A6AD9
:1049C80012F47F4F04D0F91D0120FFF7E1FD05E047
:1049D8009B6AB3F5803F91D3FFF750FE0346CCE7BF
:1049E800FA1D0021BBE7F91D0020EEE71648036811
:1049F8005A0783D01B497FE7134803685B073FF4D6
:104A08007DAF194A194B18F4F87FE8468AB018BFE9
:104A180013466A461649C2E905134FF40073138416
:104A2800103E144BD66142F8103F00234FF4115149
:104A3800FCF79EFFC54661E722F4FF7222F00102EF
:104A4800B3E700BF00ED00E01403002050FE0008AB
:104A58007BFE000892FE0008B3FE0008C1FE0008B5
:104A6800E0FE0008FCFE000837FE000822FE0008F1
:104A780020FF000804000001024A536943F01003B4
:104A88005361704700ED00E0EFF30880EFF3098110
:104A980001B57246FFF7EAFE01BD00BF102080F3A2
:104AA80011880B484FF0AA014FF4046208F054FA39
:104AB80007484FF40461401880F30988EFF3148025
:104AC8000221084380F31488BFF36F8F00F0B0F819
:104AD80000220020084B9B6883420BD1EFF305832B
:104AE80043B1064B5A6842F080525A605A6A22F41F
:104AF80000425A6208F0C1BB1015002000ED00E02A
:104B08000A4A93686FF00A01C3F8B0100849C3F85D
:104B1800AC004B6843F080534B60002383F311884B
:104B2800BFF36F8F9368D3F8B0007047101500205B
:104B380000ED00E016498A684FF030001044EFF3AA
:104B4800098C80E8F01F102080F31288BFF36F8F64
:104B5800104F4FF000664A698A603E604FF0A80423
:104B6800141920680C4C2060D2F8AC000023C2F85D
:104B7800AC3080F3118804B5104600F0FFF8BDE8AA
:104B8800044002F1300090E8F01F8CF30988704768
:104B98001015002004ED00E0241200201EF0040F80
:104BA8000CBFEFF30880EFF30980816911F8021C4C
:104BB8000229FFD001B506F0FFFD01BD40B2002873
:104BC80007DB044A4109012300F01F00834042F833
:104BD8002130704700E100E040B200280CDB4309B7
:104BE800064900F01F0020330122824041F82320AB
:104BF800BFF34F8FBFF36F8F704700BF00E100E036
:104C080040B20028A8BF00F1604001F10101B8BF1F
:104C1800064B4FEA0111ACBF00F5614000F00F00F0
:104C2800C9B2B4BF195480F80013704714ED00E0FE
:104C380008B5084B084A23F07F039360BFF34F8FF2
:104C4800BFF36F8F03F0D0FB04F064FB00F06AF849
:104C580003F020FC0000000800ED00E042F8203CD2
:104C6800009B42F81C3C0A49019B42F8183C029BF5
:104C780042F8143C21F001014FF0807342F8043CE3
:104C880042F8081C0023203A0265C0F8AC3070478F
:104C9800191200080A4A0346906878B113F1160FF2
:104CA800D0F8980005D0A0F140029A4205D8834276
:104CB80003D2814228BF002070470020704700BF00
:104CC8001015002008B514460A4A0B4B9060D0F81E
:104CD800A8201A600D4600F051F8204685F309888F
:104CE800002163B681F31188BFF36F8F0022002380
:104CF800FCF78EFA1015002024120020014910221A
:104D08000A60704710ED00E072B6404080F31188E9
:104D1800BFF36F8FBFF34F8F30BF62B6BFF36F8F94
:104D2800704700BF044800231021C21801333E2BEE
:104D380082F80013F9D1704700E100E001B5EFF304
:104D48000580A0F110004FEAC0000449014409C9D8
:104D58009847BDE801400249084700003CDA0008CE
:104D68007D450008024B034A0348012100F092B830
:104D78000000012000000020A8E20008D0F89820D8
:104D8800054B403A1A60054A4021C3E9011218460A
:104D9800012100F089B800BF2812002000000B157F
:104DA80008B503461148D0F89020C2F30722013A0B
:104DB80093420AD90E480268520703D00D4A0121CE
:104DC80005F079FD6FF0150008BDC0F898300A6845
:104DD80022F01F021A4342F01002C0F89C208A6891
:104DE80042F00102C0F8A0201846EDE700ED00E00F
:104DF8001003002037FF0008F0B50E4685B01F46A7
:104E080004460025B54210DA606828B3AFB1431EE6
:104E180018420DD0124803685B0704D0114A2B468C
:104E2800012105F048FD6FF01502104605B0F0BDF0
:104E38001F28EFD921680B42ECD12368019306F0B3
:104E4800CEFCA36801A90343D0B20393FFF7A8FFE0
:104E580010F1160FE7D0421C01350C34D2E700BF21
:104E6800100300205DFF0008044B0522C3F89420BE
:104E7800BFF34F8FBFF36F8F704700BF00ED00E0A7
:104E8800BFF35F8F024B0022C3F89420704700BF26
:104E980000ED00E010B5034C01232278FFF7ACFFCA
:104EA800207010BD7115002008B50B4A0023127838
:104EB800FFF7A2FF10F1160F07D0084A0021D2F819
:104EC8009030C3F30723984200DB08BDC2F898006E
:104ED800C2F8A0100130F2E77115002000ED00E0E3
:104EE800F0B553485349D0F890300C68C3F3072302
:104EF8009C4285B000F29880FFF7C2FF4968002203
:104F0800944201F10C010DD14B4D4C4F2C70684669
:104F1800FCF7EAFF00240646A64216D1FFF7A4FFD5
:104F2800002030E0C0F8982051F80C3C23F01F0313
:104F3800134343F01003C0F89C3051F8043C43F08D
:104F48000103C0F8A0300132DAE7009800EB041141
:104F58004FEA041CCB683B40B3F5000F52D014D87D
:104F6800B3F5001F38D0B3F5800F40D0B3F5801FDC
:104F78001AD0334803685B0703D0324A012105F091
:104F880091FC6FF0150005B0F0BDB3F1807F42D001
:104F9800B3F1007FEDD150F80C3088684A6806F00C
:104FA8001EFC40F4802009E050F80C3088684A68FC
:104FB80006F015FC40F0885040F43020039001A919
:104FC8002878CDE90123FFF7EBFE0028D9DB2B7801
:104FD80001332B7001349FE750F80C3088684A6819
:104FE80006F0FDFB40F0885040F40020E6E750F85A
:104FF8000C3088684A6806F0F2FB40F0E06040F444
:105008000030DBE750F80C3088684A6806F0E7FBA8
:1050180040F08270D2E750F80C3088684A6806F091
:10502800DEFB40F08870C9E74FF0FF30ABE700BF08
:1050380000ED00E0B4E20008711500200000F0FF68
:105048001003002080FF000808B5024B1B68984732
:10505800002008BD34120020034B044A18609378DE
:1050680043F002039370704734120020200100209F
:10507800F0B587B007460E46144600211022684650
:105088001D4608F0BCFB02238DF802302A46054B6A
:10509800019321466846CDE9047604F0E5FC07B0A3
:1050A800F0BD00BF07B8000808B50649064821F05A
:1050B8000701C1F1005202F5803205F00DF8002019
:1050C80008BD00BF07360020381200200B0706D5A0
:1050D800034B1B5C03F00303012B08BF2030704710
:1050E800DA0601082DE9F0410F4E104F054600245D
:1050F8004FF001082B7853FA84F01F280DDCF26872
:1051080008FA00F333EA020207D1F36057F83030A7
:105118001BB107EBC002516898476A780134E3B2C3
:105128009A42E7D2BDE8F0810008005844120020F6
:10513800044B184400230133994200F8012BFADC90
:10514800704700BF8002002010B4074B0749024691
:10515800D1F880401856012393402343C1F880308A
:1051680010BCFFF72BBD00BF8002002000080058CC
:105178001F2808DC04490122D1F88030824023EA44
:105188000203C1F8803070470008005803292AD864
:10519800DFE801F0020E141F134B01221968824048
:1051A80021EA02011960596821EA02025A6070472F
:1051B8000D4B0122196882401143F3E70A4B012283
:1051C8005968824011435960196821EA02021A603D
:1051D8007047012303FA00F0034B1A6802431A6070
:1051E8005A681043586070470008005830B50A4B99
:1051F80053F830408C4204D103EBC0056D689542EA
:1052080005D034B943F8301003EBC0035A600020CE
:1052180030BD6FF00F00FBE744120020034B002263
:1052280043F8302003EBC0035A6070474412002053
:1052380013280ED8084A12F8103053B102EB400276
:10524800527832B108684343002093FBF2F30B60B5
:1052580070476FF015007047DDFF0008F8B54C88FF
:1052680046680569ECB143F6FF739C422CD0DFF821
:10527800E4C006F11607002337F8022F42EA0C02B1
:1052880092B294420ED00133082BF5D1324803680C
:105298005D0702D16FF01500F8BD304906F02FFC0C
:1052A800F8E7234696F928202AB195F9B620541C28
:1052B8000CD185F8B6300A7996060FD526480368CA
:1052C8005D07E7D02649E9E70723EBE79A42F2D0E2
:1052D800214803685F07DDD02249DFE70C78082CF6
:1052E80005D01D4803685C07D4D01F49D6E7497824
:1052F800042905D0184803685907CBD01B49CDE7C6
:105308004068016890F92800012802F01F0203DCB8
:10531800002811DB0020BFE702280DD148694FF4AF
:10532800807404FA02F220EA02024A614A6922F011
:10533800070213434B61EDE7074C23685A07A9D0CE
:105348000B49204606F0DBFB23685B07A2D009491E
:105358002046A3E700C0FFFFF8020020050001086F
:105368004A000108240001087200010887000108AA
:10537800A1000108D700010810B5436804691B683B
:105388001A68520744D51A6CD4F8A430991CC4F88A
:10539800A4101A8094F8B53094F8B4200133DBB225
:1053A8009A4284F8B53033D1002384F8B530636F5E
:1053B800B3B3D4F88C30B4F8982033B104F1740145
:1053C8009847012812D0022823D0B4F89830B4F8AE
:1053D80094209A421DD90133A4F89830D4F8883023
:1053E8004BB92046BDE8104006F08DBBD4F8A83074
:1053F800C4F8A430F2E7BFF35B8F54E8003F5A1EAD
:1054080044E800210029F8D1BFF35B8F012BE8DCC9
:1054180010BDD4F888301BB104F1080007F09AFFDA
:10542800D4F8A0305B68186806F0AEFB074AFF2383
:1054380084F8B630D2F8083723F0E073C2F808379A
:1054480004F15800BDE8104003F0C6BA002001403E
:1054580037B543681D680446284606F095FB63681F
:105468001A68936823F0004323F0170343F00043BE
:1054780093609368002BFCDB636810489968836825
:10548800DB683BB90E4803685A0707D00D4906F098
:1054980036FB03E001AA98470028F3DB019B33B9E8
:1054A800074803685B0702D0074906F028FB28462F
:1054B80003B0BDE8304006F04EBB00BFFCD8000882
:1054C800F8020020ED000108070101082DE9F34763
:1054D800D0F804800669D8F800700546DFF8E8A01F
:1054E800504607F025FD60B9384803685A0702D0CE
:1054F800374906F004FB6FF01204204602B0BDE8FD
:10550800F087FF2386F8B630C6F8A050D5F8049087
:10551800DAF80830D9F808101B68D9F80040504666
:10552800984770B9D9F8102022F00043B3F1804FA2
:1055380002D0B2F1004F1ED1236923F04043134338
:105548002361D8F8140001AA002107F0FBF8041E13
:1055580007DB019B00221979186801F025FE041E5B
:1055680015DA1A4803685B07C7D01A4A234601218F
:1055780005F0A1F9C1E71849D1F8083723F47013E9
:105588001343C1F80837236923F04043D8E7BB68C1
:1055980023F0104323F0170343F08053BB6014201B
:1055A80007F0B7FCD8F8043098472846FFF750FFB3
:1055B800FB6823F45C63FB60B36C1BB906F1400025
:1055C80003F00AFA002498E7FCD80008F802002043
:1055D8001B0101083A010108002001402DE9F04FA4
:1055E800036985B007460E4603F140094FF0FF32C4
:1055F8004FF0FF33484603F015FA7B683C691D6895
:10560800B368C4F8A430D6F80480C4F8B080404623
:10561800FAF7F8FD002384F8B40084F8B530B8F13F
:10562800000F0FD188480368590702D0874906F050
:1056380066FA6FF01504484603F0CEF9204605B027
:10564800BDE8F08F7A68106892F92AC0283263455D
:1056580006DB17D17C4803685A07EAD07C49E6E79D
:1056680052F8041F96F810E0BEEBD14F37D15FFA1D
:1056780081F8B8F1FF0FC1F30422C1F3423BC1F333
:10568800024A2ED13B697868D3F8B0204FF0010E5A
:105698000023002A3FD190F929204AB90268C3F3B0
:1056A8001103936213689B04FCD54FF400531360F5
:1056B80094F8B4203368520013B19B8903FB02228B
:1056C800F368934233D2604801684C0704D0012143
:1056D8000092604A05F0F9F86FF00B04ABE701336C
:1056E800B5E750F808300392D3400BEA03039A4514
:1056F800C8D006F049FA7B68039A196851F808304F
:105708000BFA02FB23EA0B030AFA02FA43EA0A033A
:1057180041F80830B6E792FAA2F1B1FA81F10EFA2F
:1057280001FC4CEA81610B4322EA0C02B1E796F8CE
:1057380011A0BAF1000F54D12B69D90706D5284614
:1057480006F022FA2B6923F001032B61B37C13B115
:105758003846FFF77DFE284606F0FDF910232B603A
:105768006B6843F004036B6037460FCF04F1740590
:105778000FC53B682B60002727673368002B5FD075
:105788000FCB04F1880585E80F006567A4F89870C9
:10579800002855D0BFF35B8F54E8003F44E80072FF
:1057A800002AF9D1BFF35B8FD4F88800633047F142
:1057B800000164220023FAF70BFD0022CDE9000165
:1057C800002304F1080003F071FF4FF0FF324FF09F
:1057D800FF3304F1580003F025F900B12067246F66
:1057E80029E7BAF1080F24D82B69DA0706D4284626
:1057F80006F0CAF92B6943F001032B61164B53F8E5
:105808002A80164B53F82AA02B6903F01C039A45EB
:1058180004D12B6903F4F073984597D0284606F015
:10582800B3F92B6948EA0A0823F4FE7343EA08032C
:105838008BE7054803685B073FF4FBAE0849F6E6CB
:10584800204606F060F9C0E7F80200205801010878
:105858006D0101088001010860E300083CE30008CD
:10586800A5010108134B18680B68062B10D04C2BA8
:1058780007D010D8032B19D006D8013B012B07D825
:105888000020106000207047052BFAD0482BF8D074
:105898006FF0850070475C2BF3D003D8502BF0D005
:1058A800582BF4E7602BECD0642BF0E74FF4FA4068
:1058B800E7E700BF6C02002070B54FF0B04406F077
:1058C800E0F902F0E7FBD4F808312F4A2F4D03F036
:1058D8000F0352F823601368B0FBF6F6B5FBF3F537
:1058E800AE4202D2284602F047FC236843F0080380
:1058F8002360236823F0F00343F0B0032360636858
:1059080023F47F4363602368980708D4236843F02F
:10591800010323604FF0B04213689907FCD54FF09C
:10592800B043D3F8942042F00102C3F89420D3F88E
:1059380094209207FBD59A6822F0F0029A609A6840
:1059480022F003029A604FF0B042936813F00C0FF4
:10595800FBD1AE4202D3284602F00EFC0C4B0B4A98
:105968001A604FF0B04300209A6822F4E0629A600F
:105978009A6822F460529A60D3F8082122F00F0244
:10598800C3F8082170BD00BF50E80008006CDC02B5
:105998006C02002008B5074807F0CAFA38B1064873
:1059A800FFF75AFB0448FBF72DFC002008BD6FF0F9
:1059B8001200FBE7B0D90008C55900080A2838B515
:1059C800074D044604D1AB680D215B68284698470B
:1059D800AB6803485B68E1B29847204638BD00BF12
:1059E800B0D9000838B5036904465860084D284600
:1059F80007F09EFA40B16168AB680C311B68284615
:105A0800984700EAE07038BD6FF01200FBE700BF6E
:105A1800FCD80008F8B51746B7F5001F46680269B4
:105A28000C461D4624D101F00302043292000F23D4
:105A3800934043EA910303F003022E49023251F8DE
:105A48002220190C02EA134391FAA1F2B2FA82F267
:105A5800D340B2689A4209D12046FFF789FB204615
:105A6800FFF7DCFB00212046FFF790FB0020F8BD84
:105A7800B7F5800F38D020492046FFF7B7FBB0BBF9
:105A880004F0030304339B000F21994041EA940179
:105A980001F003039B0003F1804303F58033B068F2
:105AA8009E680A0C92FAA2F2B2FA82F202F00F028F
:105AB80026EA114100FA02F20A43B5F1806F9A60B2
:105AC8000ED0B5F1C06F0DD005F17E435942594152
