:020000040800F2
:10000000001E00204D1E0008297E0008391E000831
:10001000391E0008391E0008391E000800000000C3
:10002000000000000000000000000000391F000870
:10003000391E000800000000D51E0008F54A00081F
:10004000D5200008D5200008D5200008D5200008BC
:10005000D5200008D5200008D5200008D5200008AC
:10006000D5200008D5200008D5200008D52000089C
:10007000D5200008D5200008D5200008D52000088C
:10008000D5200008D5200008D5200008D52000087C
:10009000D5200008D5200008D5200008D52000086C
:1000A000D5200008D5200008D5200008D52000085C
:1000B000D5200008D5200008D5200008D52000084C
:1000C000D5200008D5200008D5200008D52000083C
:1000D000D5200008D5200008D5200008D52000082C
:1000E000D5200008D5200008D5200008D52000081C
:1000F000D5200008D5200008D5200008D52000080C
:10010000D5200008D5200008D5200008D5200008FB
:10011000D5200008D5200008D5200008D5200008EB
:10012000D5200008D5200008D5200008D5200008DB
:08013000D5200008D5200008CD
:1001380053B94AB9002908BF00281CBF4FF0FF3146
:100148004FF0FF3000F00CB8ADF1080C6DE904CEAB
:1001580000F008F8DDF804E0DDE9022304B0704798
:10016800704700BF2DE9F04786468C460846089E32
:10017800154674461946002B40F0C2808542B2FAF3
:1001880082F245D94AB1C2F1200300FA02FC2EFAE4
:1001980003F3954043EA0C0C94404FEA154EA8B27D
:1001A800BCFBFEF8230C0EFB18CC08FB00F943EA55
:1001B8000C43994528D9EB1808F1FF3704D2994523
:1001C80002D9A8F102072B44A3EB0903A4B2B3FB9D
:1001D800FEFC0EFB1C330CFB00F044EA0344A04277
:1001E80014D92C190CF1FF3304D2A04202D9ACF176
:1001F80002032C44241A43EA07401EB1D4400023CA
:1002080034607360BDE8F0874746DDE76346F1E791
:1002180092BB431B01214FEA154EAFB2B3FBFEFC64
:10022800200C0EFB1C330CFB07F840EA03439845EF
:1002380062D9EB180CF1FF3004D2984502D9ACF121
:1002480002002B44A3EB0803A4B2B3FBFEFC0EFB95
:100258001C330CFB07F744EA0344A7424ED92C1978
:100268000CF1FF3304D2A74202D9ACF102032C44AB
:10027800E41B43EA0040C0E7C2F1200320FA03F17F
:10028800954090402EFA03F303434FEA154EAFB260
:10029800B1FBFEFC0EFB1C10190C0CFB07F841EA25
:1002A8000041884504FA02F422D969180CF1FF309C
:1002B80004D2884502D9ACF102002944A1EB080117
:1002C8009BB2B1FBFEFC0EFB1C110CFB07F743EACB
:1002D80001439F420ED9EB180CF1FF3104D29F4223
:1002E80002D9ACF102012B44DB1B41EA004192E741
:1002F8006046E3E76146F7E76046A3E76346B7E78A
:10030800834206D916B9002108467BE7C6E900E012
:10031800F9E7B3FA83F78FB9834201D3724508D856
:10032800BEEB020460EB030301209C461EB90021CA
:1003380068E73846FAE7C6E9004CF8E7C7F1200C49
:10034800BB4022FA0CF41C432EFA0CF120FA0CF3F1
:10035800B84001434FEA14490EFA07F5B3FBF9F820
:100368001FFA84FE09FB18300B0C08FB0EFA43EA4F
:1003780000439A4502FA07F240D9E31808F1FF3022
:1003880004D29A4502D9A8F102002344A3EB0A0338
:1003980089B2B3FBF9F809FB183308FB0EFE41EAF2
:1003A80003418E452CD9611808F1FF3304D28E45DC
:1003B80002D9A8F10203214443EA0040A0FB0298B5
:1003C800A1EB0E014145CE46434602D306D14D4529
:1003D80004D2B9EB020E68EB04030138002EA6D054
:1003E800B5EB0E0261EB030101FA0CFC22FA07F3EC
:1003F8004CEA0303F940C6E9003198E74046C5E7EF
:100408004346D9E7034613F8012B002AFBD1181AF3
:1004180001387047024A0348012107F07FBC00BF3A
:1004280090A70008009E00081FB50C4B00934FF4DE
:100438002063ADF8043001238DF80630084B029391
:100448000023ADF80C30836869461B689847041E82
:1004580001DAFFF7DFFF204604B010BDE0609033FB
:1004680008000E001FB50C4B00934FF42063ADF845
:10047800043001238DF80630084B02930023ADF8B1
:100488000C30836869461B689847041E01DAFFF739
:10049800C1FF204604B010BDE060903308000E0193
:1004A800B0B586B004AF05460C46FA807B71FFF7FD
:1004B800BBFF1C4A1C48032107F030FC4FF0FF30FB
:1004C8004FF0FF31AB687A1DCDE900010392BA1DE8
:1004D8000292DB68FF22214628469847002807DA5F
:1004E800124A1148012107F019FC0837BD46B0BD72
:1004F8006D468AB0B7F9061097F9053004AA0C487A
:10050800C2E907134FF4007393840A4BC2E9050448
:1005180042F8103F044800234FF4335100F014FF11
:10052800AD46E2E7A3A70008009E0008AFA70008B1
:10053800C3A7000805000001B0B5C0B000AF04466D
:100548000D46FB220021381D396009F045FA1C4A86
:100558001C48032107F0E2FB284609F002F91D2890
:1005680018DD5028CCBF3223302320463B70FFF7DC
:1005780079FFA36801225B6839462046984700281E
:100588000ADA114A0F48012107F0C8FB07F58077FE
:10059800BD46B0BD3123E8E76C4688B06A460B4BD0
:1005A800C2E905374FF400739383094B42F8103FB3
:1005B800044800234FF4E65100F0C6FEA546E5E7DF
:1005C800EDA70008009E0008FAA700080BA800087D
:1005D80003000001B0B5C0B000AF0021FB22381DF8
:1005E800396009F0F9F9174D284608F06AFD044604
:1005F80088B100231A4639462846FFF751FF0023E1
:100608001A4639462846FFF797FF002142F2107034
:1006180005F050FAEDE788B02B686A460A49C2E946
:1006280005134FF400739383084B42F8103F4FF4BF
:10063800E2510346064800F087FE204607F580771A
:10064800BD46B0BDDC9B000818A8000803000001E7
:10065800009E00082DE9F04F91B08407009302F046
:1006680004030293C2F3C20303F10103DDF86890A7
:10067800039205460E46059340F0BA81041D30B139
:10068800072909D86FF01B0011B0BDE8F08F01F001
:100698000706341DC6F10806009B4FF00008591ED6
:1006A8004FF0040A4FF0FF330193CDF8108047460E
:1006B800C34653460DB1009A22600598002800F3FE
:1006C800E8809848009A824203D397488242C0F053
:1006D800E080039AA4EB050E92074FEA9E0000F112
:1006E80003810F2F00F2B180002D00F0058107F182
:1006F80040020DEB020C019A0CF8200C0CF8102C9F
:10070800049801300490E7E07A285DD84B280ED889
:10071800472859D829282DD8252852D054D82028F8
:100728007AD02338D0F1000B4BEB000B74E04C3837
:100738002E2849D8DFE800F070484848484848481B
:10074800484848484B484848484848484859484B0A
:100758004B595959704B6D487048184B1848488286
:100768007F4B48484B487F0000204FF0000B4FF06C
:10077800040A38E02A38C0B2012202FA00F010EA6E
:100788000E0F49D110F0625C2FD110EA020B43D052
:100798006046013C5444B4FBFAF40AFB04F4002D0F
:1007A80061D0A3EB050CA4446645FFF46BAF0028A9
:1007B80068D1042B47D159F8043B2360043404233F
:1007C8002AE0019A013A01924FF0000B24E011F857
:1007D800010C6C2834D111F8023C00206C2B8346A4
:1007E800C5D14FF0080A5346D3E709F1070929F0A4
:1007F80007090734F9E802AB24F0070435B1069875
:100808002044B0423FF63EAFC4E900AB08344FF095
:10081800000B4FF0080A534611F8010F002878D052
:10082800BBF1000F7FF470AF2528F5D1019B013390
:1008380001934FF0010B4FF0040AECE7584694E798
:1008480000208346A5E7082B02D06FF015001BE7B0
:1008580009F1070929F00709F9E80223C4E9002387
:1008680008340823D8E768B9042B02D109F1040930
:10087800A4E7082BE9D109F1070929F0070909F1CB
:100888000809EDE7059A013A059259F8042B0092F8
:1008980010E7039A900720D5A4EB050E4FEA9E00B7
:1008A8004FF0010CBEF5007FCFD20F2FCDD8F5B198
:1008B80007F140020DEB020EC0B2019A0EF8200CAF
:1008C8000EF8102CBCF1000F3FF41AAF60F07F0057
:1008D8000EF8200C08F101080137C5F108020434AC
:1008E80006924FF6DA7E97E74FF0000CDAE7BCF194
:1008F800000F01D00136EFE7029802360028EBD14D
:100908000098CDE90631FFF77DFDDDE906310644A3
:10091800E2E7631BB3F5806F97D23DB9A6F10804EF
:10092800E018B1E6149A000834B40008029A286066
:100938009B082B709DF81030C2B1EB7085F80280CF
:10094800B8F1000F05D008A80022C5F1010C9742A4
:100958000ED1C5F101030DF120094FF0000A0193F2
:100968000DF1300B574512D1601B8DE66B70E5E732
:1009780010F8013B190608D504EB0C0E764503F078
:100988007F03FFF47FAE04F8013B0132DFE7B8F1E3
:10099800000F03D099F90020002A17DB029BD3B17E
:1009A8001AF80B2004F8012B0022019B9818204408
:1009B8008642FFF467AE99F8000004F8010B00992D
:1009C8000392204608F0FAFF039A14440AF1010A38
:1009D80009F10109C6E799F8002055F8223000937B
:1009E800029B45F822300098FFF70CFD421CDCE71B
:1009F8006FF00D0048E600BF2DE9F04F95B000AF4D
:100A080090F802B0BB61BB6F7A62C3F3C0030446BF
:100A18003B618A4641B9457800780BEB8000204459
:100A2800554517D8A0EB040AE3787B61BBF1000FAA
:100A380002D0BB6FD80716D47B6953BB7B6A1BB146
:100A4800BA69514620469847554628465437BD4608
:100A5800BDE8F08F461C3046FFF7D4FC0130304427
:100A68000AF1010ADCE723783B629B00FB603B6AE2
:100A78006268FA6104EB83097B6A002B40F0FE8010
:100A88005546C84609EB0B0A0026D04551D1D94432
:100A980013E0BB6F9907D1D523783B6299469B0039
:100AA800FB606368FB617B6A04EB8909002B7AD1E0
:100AB8005546BBF1000F4FD15E46BB6F13F0050FD3
:100AC8007B6909EB430ABB6F03F002030CBF4FF0CD
:100AD800020B4FF0010B7B62D145B6D019F8021B0F
:100AE80019F8013C54F82380AA4B984502D3AA4B25
:100AF800984538D33B69002B42D0F86906F07CFD55
:100B080000283DD0E8468AB06A46A44B5361FB6989
:100B1800C2E906314FF400731384A14B42F8103F29
:100B2800A04800234FF4125100F00EFC023DC546C8
:100B3800D2E718F8013B54F82300FFF763FCFB6F7A
:100B480001303BB1D7F880309E423EBFFB6F23F89F
:100B580016000136054498E7BB6F13F004061CBF66
:100B68007E6AD944A9E73B6923B1F86906F044FDD8
:100B78000028C7D1BB6FDA0705D4A5EB0B05ABE797
:100B88007B6A002BA8D04046FFF73CFCFB6F43B1C3
:100B9800D7F880309E423FBFFA6F431C22F81630C8
:100BA8000136054498E7BBF1000F6DD0BB6F13F019
:100BB80004066CD0D846002607F140005A4649463C
:100BC80008F0FCFE7B695B007B607B69D94409EB1C
:100BD8004303BB60BB6F03F002033B60BB684B453C
:100BE80057D1B96F6378B86F890706EB030254BF12
:100BF8004FEA58010021C507D2B200F19A8010F0DF
:100C0800040F14BF40460020FB616270A070E170C1
:100C1800BA69F9687B6A20469847051EFFF615AF42
:100C28003B6A2370FB6963707B69E3704146BA696C
:100C38007B6A84F802B007F140009847B0F10008D9
:100C4800C0F2A480FB68BA69AAEB0B01C91A7B68D9
:100C58004846C91A7B6A98470028C0F29980A84478
:100C680008EB00054FF0000B07F1300AB34562D3DB
:100C78000021BA697B6A08469847E6E65E464FF067
:100C8800000807F1300099E75E46D8469AE7B04673
:100C980098E719F8021B3F4B19F8015C54F8250036
:100CA800984202D33C4B98421DD33B6923B1F86963
:100CB80006F0A2FC002891D13B68FBB908F1280393
:100CC80007F1280208F1010003EB020C07F15003B9
:100CD80053FA80F008F102080CF8101C5FFA88F843
:100CE80000F8105C7AE73B692BB1F86906F084FCE0
:100CF80000287FF473AFBB6FDB0709D506F1280323
:100D080007F12802711C9E1806F8205CCEB265E730
:100D1800BB6F58077FF562AF08F1280307F1280277
:100D280008F1010103EB020808F8105C5FFA81F88A
:100D380054E7002068E71BF80A3087F82F3054F88A
:100D48002390FB6FFBB133F81B80BA697B6A0121E2
:100D580007F12F00984700281ADB0544B8F1000F67
:100D680006D14846FFF74EFB00F101081FFA88F844
:100D7800BA697B6A414648469847002808DB05441B
:100D88000BF1010B72E7D7F87C80DEE745465CE69D
:100D980005465AE6149A000834B4000839A8000831
:100DA80004000001E09D0008014B1860704700BF77
:100DB8000000002080B505460E461746984604F008
:100DC80097FE034608F018FEDFF81890044649F825
:100DD8000030424630463946A84754F8090001F029
:100DE80047F800BF08000000064B1A6842F400727A
:100DF8001A601A6842F480621A60034B034A1A6048
:100E080000207047004000584401002000093D00C0
:100E1800034A536823F0020353600020704700BF61
:100E2800002004E02DE9F047DFF858800446074623
:100E38004FF0010914B93846BDE8F08794FAA4F5D3
:100E4800B5FA85F509FA05F32E0108EB05156FEAE1
:100E5800030A24EA03042B7B002BEBD058F8063056
:100E68001B694BB94644042273682846196807EA87
:100E78000A0700F055FADDE7284698470028D9D137
:100E8800F0E700BF489E000830B51049104889B007
:100E9800002208F005FB0F4D0F4900220023CDE981
:100EA800062300240E23CDE90334CDE901440B4B7E
:100EB80000944FF44072284604F068F9084928461F
:100EC80008F01DF9204609B030BD00BFED0E00083E
:100ED800A806002020020020400D0020CD110008A7
:100EE800F1A80008014804F0C9B900BF08020020B1
:100EF8002DE9F04780461E480F4606F081FE06465B
:100F080078B300252846BDE8F087237B73B12368B2
:100F1800DB680BB12046984723681B69CBB9636827
:100F280004221968204600F0FBF9013610344C45BC
:100F3800EBD3B8F1000FE5D0002DE2D02846FFF73B
:100F480071FF0546002FF7D00021642004F0B2FDA0
:100F5800F2E7204698470028E1D00AFA06F31D4335
:100F6800E3E7044CDFF8109005464FF0010ADEE78E
:100F7800B0080020489E0008589E0008014B53F80E
:100F88002000704744A1000808B5034608462BB165
:100F9800044A136000F07AFC002008BD6FF01500C9
:100FA800FBE700BF0400002010B5044C237813B9F8
:100FB800034804F063F90123237010BD0C0C0020D2
:100FC8000802002010B50446084806F019FE5CB176
:100FD800BFF35B8F064B53E8001F013943E800124B
:100FE800002AF8D1BFF35B8F10BD00BFA80800200E
:100FF800AC0800200020064BBFF35B8F014653E886
:10100800000F43E80012002AF9D1BFF35B8F704745
:10101800A808002070B5FFF7EDFF084C084E0546FC
:10102800B44200D370BD63685B792BB123685B68F9
:1010380013B12946204698471034F1E7489E000826
:10104800589E000810B5044C0449204606F06BFC75
:10105800034B1C6010BD00BF8801002030A10008B0
:10106800A0080020084A094808B500231370084A58
:101078001360084A4FF47A711360FFF785FFBDE8E3
:101088000840FFF7DFBF00BF0D0C0020237C0008DD
:10109800A8080020AC0800200146002201480023CF
:1010A80006F062BC88010020014806F0FBBC00BFC6
:1010B80088010020024B0146186806F045BD00BFB4
:1010C800A0080020014806F07BBD00BF8801002071
:1010D80070B5254B1878002844D0FFF7E5FF054682
:1010E80090B1BFF35B8F214B53E8001F013943E8F0
:1010F8000012002AF8D1BFF35B8F1D4C1D4EB4427D
:1011080026D32846FFF7D6FF1B4B1C4C1B68002B29
:1011180012DD08F0C3F90A220023FFF709F8D4E921
:101128000032C01A40F2E93361EB0201984271F1D2
:10113800000101D3FFF76EFFD4E9003213F57A738B
:1011480042F10002C4E90032BDE87040FFF7BABFBF
:1011580063685B7923B1236829461B682046984752
:101168001034CCE770BD00BF0C0C0020AC08002088
:10117800489E0008589E0008A8080020A0060020E5
:1011880070B50D4D297861B90120FFF7B1FE0B4C00
:101198000B4EB44206D3FFF79BFF0028FBD1012377
:1011A8002B7070BD63685B791BB1236820469B6810
:1011B80098471034EDE700BF0D0C0020489E00084A
:1011C800589E000800212DE9F0470846FFF790FED9
:1011D800044658B34FF4FA784FF0000908F00CFCB5
:1011E8001B4B1C4A1B58136033B11B4B1B68092B44
:1011F80002DD1A4804F042F8194FDFF860A0002514
:1012080044B12046FFF70EFE044618B94FF0FF38E8
:101218004FF0FF39FFF75CFF064628B9B5B94246DB
:101228004B46504604F050F83546E9E74FF0FF3892
:101238004FF0FF39D2E72B689B691BB1002211469A
:10124800284698471035BD42F5D3E8E7054DFAE73B
:1012580008000000A4080020AC08002008020020B4
:10126800589E0008489E000813B5184806F0C8FCA8
:10127800174B1B787BB14FF01003EFF3118483F306
:101288001288BFF36F8FFFF723FF84F31188BFF332
:101298006F8F02B010BD0F4B1B68002BF9D050B9EF
:1012A80000220023CDE900230B4842F210720023EC
:1012B80004F002FEEDE70928EBD1074808F0FCF836
:1012C800064802B0BDE8104003F0D8BFAC080020C3
:1012D8000D0C0020A4080020A80600200802002009
:1012E80010B5064B1B68044698472146A060044881
:1012F80006F0B8FBBDE81040FFF7B6BF04000020B9
:1013080088010020044A054B9B1AB1EBD30F34BF68
:1013180052F8310000207047E09D0008489E000800
:10132800084BC31A10B41B11446801332371436876
:101338009A7143681960436801225A7110BCFFF71B
:1013480033BE00BF489E00082DE9F04F8FB004AFB0
:10135800C1F34A28B8600D4691467B600C0DB8F180
:10136800000F63D0002607F114034FF0040B4FF071
:101378000A0AC7F80C80C7E907667E620193CDF8B0
:1013880008B0CDF800A007F11C03F96832464846BA
:10139800FFF732FBB0F5006F03461CD36C468AB0EA
:1013A800D9F8041004AB2648C3E9050140F2FF71DF
:1013B800D9611A464FF400711984224B42F8103F44
:1013C800214833464FF41251FFF7BEFFA5462C378C
:1013D800BD46BDE8F08FC0F30A0804F117001844B1
:1013E80020F0070080083B60FFF756FE68F353259E
:1013F800044690B13B68154AC7E9083600F1100168
:1014080007F11403F961CDE900A3CDF808B0F96834
:1014180007F11C034846FFF7EFFA68F353257B688A
:10142800B9682A46204606F029FCD0E704F11700DF
:1014380020F007008008FFF72FFE0446EDE700BF05
:1014480006A9000804000001E89D0008597C00086E
:101458002DE9F04F87B0DDE91269DDE9105A04463D
:101468000F4693469846A6B31021CDF80090334610
:1014780052460020CDF81490FFF7ECF8014605F12C
:1014880017000844144B039104F007040BF0070BF2
:10149800E40020F0070003EA412344EA8B148008A3
:1014A8001C43FFF7F9FD44EA0554054640B13EB137
:1014B8000399CDF80090334652461030FFF7CAF82A
:1014C800434622463946284607B0BDE8F04F06F0A5
:1014D800D5BB3146D3E700BF00FE0F000EB403B5FD
:1014E80003AB014653F8042B0448019300F07CFF3A
:1014F80002B05DF804EB03B0704700BF7F7D0008C1
:10150800CA0605D48B064CBF02490349FFF7E6BF5C
:10151800704700BF46A9000845A900082DE9F04F0B
:1015280089B09A46DDE914739DF84CB00593169B73
:10153800179E069204460D460493BBF1000F00F077
:10154800858006F00803079306F080FB06F0020981
:101558000246002849D086492046FFF7BFFF80464B
:10156800B9F1000F08D016F0440F40D181492A463E
:101578002046FFF7B3FF804406F0010353B17E4BCA
:101588007E4953F82B207E4B2046002A08BF1A4676
:10159800FFF7A4FF06F00803002B54D0794B7A49D3
:1015A80053F82B202046FFF799FF0546069B2BB1E1
:1015B80076491A462046FFF791FF0544BAF1000F15
:1015C80005D0734952462046FFF788FF0544454435
:1015D800002F49D1049B002B4FD1F30700F1C180A4
:1015E80031462046FFF78CFFB5E08046B8E7694BE7
:1015F80018680028BFD0684B4FF47A791B68B5FB90
:10160800F3F54FF46161B5FBF0F300FB135509FBEB
:1016180005F54FF03C0CB3FBF1F201FB1231B5FBC1
:10162800F0FEB1FBFCF300FB1E550CFB131109FB8C
:1016380005F50091B5FBF0F55849CDE901E52046DF
:10164800FFF74CFF97E706F00805AFE7BAF1010F7F
:1016580006D1002F65D1049B002B7CD000250CE01F
:10166800002FF8D04E485DE04E484F493B46224691
:1016780005F091FF049B002B69D0DFF83081DFF87B
:101688003091049F3146102F204628BF1027FFF7BE
:1016980037FF4FF0000A554546DC059B49461A7846
:1016A8002046FFF71BFF4FF0010A1AF0070F03D17E
:1016B80041462046FFF712FF57453CD9059B49464E
:1016C80013F80A202046FFF709FF0AF1010ABAF1C8
:1016D800100FEAD1374920464FF0000AFFF7FEFE07
:1016E8005246059B9A5C344B995C11F0970F08BFE2
:1016F8002E2232492046FFF7F1FE0AF1010ABAF11B
:10170800100F1DD01AF0070F03D141462046FFF7EE
:10171800E5FE57455246E4D841462046FFF7DEFE2F
:10172800EBE720485D46A0E741462046FFF7D6FE96
:101738000AF1010AAFE722492046FFF7CFFEC4E7C6
:10174800059B3B440593049BDB1B049399D1BBF198
:10175800000F7FF442AF204609B0BDE8F04F06F015
:10176800FDBA074A05492046FFF7B8FE38E700BF2B
:101778004DA9000851A9000854A10008A5AE000809
:1017880048A9000868A1000876A900087CA90008F3
:1017980080A90008B8080020B40800205AA9000849
:1017A800B57D00087F7D0008F12300088DA9000899
:1017B80085A900088FA9000826B3000891A9000888
:1017C8008BA900082DE9F0410F884B688E6886B018
:1017D80005460C469046C7F382175BB1144A9B1A1C
:1017E80043F3CF01002920DB2078C0F3C200FFF7C4
:1017F80089FD03462146608851F8102B0197C2F3F2
:101808004A22002A01EB0204C0F30B1008BF002192
:101818000022CDE90408CDE9021400923146284699
:10182800FFF77CFE06B0BDE8F0810023E2E700BFC9
:10183800E09D000873B542F20F738B4228BF0B4638
:1018480005680F4A04460521684604F013FC6368DE
:101858000C495B6806460B22284606F072FA636854
:101868003246694628465B6806F06BFA63680649A3
:101878005B681B22284606F064FA02B070BD00BF00
:10188800C5AE0008B0A9000894A90008074A0021BD
:101898000123904206D8064A01B901231360054B7B
:1018A8001860704740085B000121F2E740420F00D2
:1018B800B4080020B8080020F8B5074F0D460446C4
:1018C8004618B44201D12846F8BD14F8011BBB687C
:1018D80001485B689847F4E7789B0008014B036070
:1018E80000207047B0A100082DE9F047804600AFFE
:1018F8000C46002936D0E9468AB0D1E90012A3681F
:101908006D461C482E464FF0050AC5E90501C5E994
:10191800072346F810AF1848324600234FF42151E8
:10192800FFF712FDCD46D4E903126369AD461348AB
:10193800C5F810A0C5E90501C5E907230E4800232D
:1019480032464FF42151FFF7FFFCCD46E3690C4ABC
:101958000948012106F0EBF9A3690A4A0648012162
:1019680006F0E5F92146404603F05EFABD46BDE8BB
:10197800F08700BFF6A90008109E000825AA0008F5
:1019880054AA000863AA000830BFFFF7FDBF00BFD4
:10199800114B124A2DE9F041D518DFF84480013D7A
:1019A800B5FBF3F55D430F4B08EB0304013CB4FBB7
:1019B800F3F403FB04540E1B07460B49304607F0AB
:1019C800FDFF701942460021083E08F005F87E67C1
:1019D80004F10800BDE8F0810100000000000000EB
:1019E8000800000004000000589E0008044B996895
:1019F8005869884203D003494FF080520A60704703
:101A0800D40B002004ED00E070B5244C06460D46CA
:101A18002348244906F00BFAA36AD9043CD5204888
:101A2800214906F004FA1720A36A1A0504D51C48B0
:101A38001E4906F0FCF91820184CA36A9B0512D51C
:101A48001B49174806F0F3F9A36BA26A110409D5DC
:101A5800184A1348012106F06AF91EB1A36A23F453
:101A68000043A36219200D4CA36A5A0504D50C48FB
:101A7800114906F0DCF91A20A36ADB0504D50848E9
:101A88000E4906F0D4F91B20044A936A43F47F43B5
:101A9800936200232B7070BD1620C5E700ED00E0AF
:101AA800109E000891AA0008A7AA0008B8AA000872
:101AB800CBAA0008E4AA0008F9AA000814AB000899
:101AC80010B5204C2049214806F0B1F9A36A9901C4
:101AD80036D51E481E4906F0AAF91E20A36ADA0167
:101AE80004D51A481B4906F0A2F91F20154CA36A11
:101AF8001B0304D51548184906F099F92120A36A53
:101B0800590304D51148154906F091F922200D4CC6
:101B1800A36A9A0304D50D48114906F088F92320D1
:101B2800A36ADB0304D509480E4906F080F924208E
:101B3800044A936A6FEA03436FEA1343936210BD42
:101B48001D20CBE700ED00E02CAB0008109E00083C
:101B580044AB000857AB000871AB00088FAB000816
:101B6800B4AB0008CEAB00082DE9F8432F4D8046F2
:101B780089462F482F49174606F059F9AB6ADA0605
:101B880027D52D492A4806F052F91124AB6A1B07BC
:101B980004D52A49264806F04AF91224234DAB6A8F
:101BA8009E0718D52649224806F041F96E6BAB6AA4
:101BB8001C0637D5234A1E483346012106F0B7F8DC
:101BC800B9F1000F03D0AB6A23F08003AB62132492
:101BD80003E01024DAE76FF01506144DAB6AD80756
:101BE80004D51949124806F022F91424AB6AD9061B
:101BF80002D4AB6A9A070BD50C4B5B681B0507D55B
:101C08004146304600F010FA10B180F309880224EA
:101C1800064A936A43F0FF03936200233B70204611
:101C2800BDE8F8836FF01506D1E700BF00ED00E0CE
:101C3800109E0008F9AB00080FAC0008B8AA00080D
:101C480042AC00085AAC000870AC00082DE9F0411D
:101C5800664B8AB0D3F8048000AF0446C8F3080581
:101C6800002686F31188BFF36F8F02F07F43B3F12C
:101C78007F4F07D102F00C03082B12D15C495D4855
:101C880006F0D5F8002634460023FB71EB1E092B1D
:101C980000F28A80DFE803F00A80837D88888888DC
:101CA800888610074CBF0C460126EDE7524951487B
:101CB8004E4D06F0BCF80023FB71EB6A9A0705D578
:101CC8004E494C4806F0B3F8002333E0EB6A002B8A
:101CD80001DA4B49F5E7EB6A5B00F5D54949454818
:101CE80006F0A5F86B69A26943F480736B61BFF3D2
:101CF8004F8FBFF36F8F6B6932F8022C23F4807318
:101D08006B61BFF34F8FBFF36F8F4DF602739A422B
:101D180009D0AB6ADBB27BB3FA1D01212046FFF77D
:101D280023FF034606E02368374A3248012105F0BD
:101D3800FEFF2368FA79DAB907F1080504F1200CE7
:101D4800206861682A4603C2083464451546F7D1FD
:101D58007A6A002E44D0C2F3080121B96FEA5222F0
:101D68006FEA42227A6207F108011846FFF7BCFDC4
:101D78002837BD46BDE8F081AB6A13F47F4F04D025
:101D8800F91D0120FFF740FECBE7AB6AB3F5803FB2
:101D98009AD3FFF795FEC4E7FA1D0021BEE7F91DA7
:101DA8000020EFE719498CE7194A1A4B18F4F87F15
:101DB800E8468AB018BF13466A461749C2E90513B0
:101DC8004FF400731384103D144BD56142F8103F53
:101DD800084800234FF41151FFF7B6FAC54673E7D8
:101DE80022F4FF7222F00102BCE700BF00ED00E020
:101DF800BDAC0008109E0008E8AC0008FFAC000865
:101E080020AD00082EAD00084DAD000869AD0008F2
:101E1800A4AC00088FAC00088DAD000804000001D8
:101E2800024A536943F010035361704700ED00E024
:101E3800EFF30880EFF3098101B57246FFF706FF5B
:101E480001BD00BF102080F3118808484FF40461D9
:101E5800401880F30988EFF314800221084380F3C7
:101E68001488BFF36F8F00F0ADF8000080100020D9
:101E7800084B9B6883420BD1EFF3058343B1064BB4
:101E88005A6842F080525A605A6A22F400425A62F2
:101E980007F0A6BAD40B002000ED00E0094A9368C9
:101EA8006FF00A01D967084998674B6843F0805377
:101EB8004B60002383F31188BFF36F8F9368D86F4B
:101EC800704700BFD40B002000ED00E015498A6878
:101ED8004FF030001044EFF3098C80E8F01F102019
:101EE80080F31288BFF36F8F0F4F4FF000664A6977
:101EF8008A603E604FF07404141920680B4C20600F
:101F0800906F0023936780F3118804B5104600F0A2
:101F1800FDF8BDE8044002F1300090E8F01F8CF3B2
:101F280009887047D40B002004ED00E0E808002081
:101F38001EF0040F0CBFEFF30880EFF309808169EE
:101F480011F8021C0229FFD001B505F065FF01BD9B
:101F580040B2002807DB044A4109012300F01F00B2
:101F6800834042F82130704700E100E040B2002889
:101F78000CDB4309064900F01F0020330122824090
:101F880041F82320BFF34F8FBFF36F8F704700BF17
:101F980000E100E040B20028A8BF00F1604001F174
:101FA8000101B8BF064B4FEA0111ACBF00F5614013
:101FB80000F00F00C9B2B4BF195480F8001370477D
:101FC80014ED00E008B5084B084A23F07F0393603E
:101FD800BFF34F8FBFF36F8F02F0D8FF03F0A0FD60
:101FE80000F068F803F024F80000000800ED00E0B5
:101FF80042F8203C009B42F81C3C0A49019B42F8ED
:10200800183C029B42F8143C21F001014FF0807308
:1020180042F8043C42F8081C0023203A0265836712
:10202800704700BFBD0D0008094A0346906870B1AB
:1020380013F1160F406E05D0A0F140029A4205D860
:10204800834203D2814228BF002070470020704796
:10205800D40B002008B514460A4A0B4B9060426F17
:102068001A600D4600F052F8204685F309880021D1
:1020780063B681F31188BFF36F8F00220023FEF748
:1020880099FE00BFD40B0020E80800200149102267
:102098000A60704710ED00E072B6404080F3118886
:1020A800BFF36F8FBFF34F8F30BF62B6BFF36F8F31
:1020B800704700BF044800231021C21801333E2B8B
:1020C80082F80013F9D1704700E100E001B5EFF3A1
:1020D8000580A0F110004FEAC0000449014409C975
:1020E8009847BDE80140024908470000F09B0008F6
:1020F800F5190008024B034A0348012100F08AB889
:102108000000012000000020B0A10008426E054B2D
:10211800403A1A60044A4021C3E9011218460121D5
:1021280000F082B8EC08002000000B1508B5034643
:102138001048D0F89020C2F30722013A934207D9F9
:102148000D480E4A012105F0F2FD6FF0150008BD9B
:10215800C0F898300A6822F01F021A4342F01002B1
:10216800C0F89C208A6842F00102C0F8A0201846F6
:10217800EDE700BF00ED00E0089E0008A4AD0008F0
:10218800F0B50E4685B01F4604460025B5420DDA67
:10219800606810B397B1431E18420AD0104A11481C
:1021A8002B46012105F0C3FD6FF01502104605B05E
:1021B800F0BD1F28F2D921680B42EFD123680193A3
:1021C80005F03DFEA36801A90343D0B20393FFF7CE
:1021D800ADFF10F1160FE7D0421C01350C34D5E7DE
:1021E800CAAD0008089E0008044B0522C3F89420D5
:1021F800BFF34F8FBFF36F8F704700BF00ED00E054
:10220800BFF35F8F024B0022C3F89420704700BFD2
:1022180000ED00E010B5034C01232278FFF7B0FF72
:10222800207010BD0F0C002008B50B4A002312784F
:10223800FFF7A6FF10F1160F07D0084A0021D2F8C1
:102248009030C3F30723984200DB08BDC2F898001A
:10225800C2F8A0100130F2E70F0C002000ED00E0FA
:10226800F0B551485149D0F890300C68C3F30723B2
:102278009C4285B000F29580FFF7C2FF49680022B2
:10228800944201F10C010DD1494D4A4F2C7068461A
:10229800FFF724FB00240646A64216D1FFF7A4FF49
:1022A80000202DE0C0F8982051F80C3C23F01F03C3
:1022B800134343F01003C0F89C3051F8043C43F03A
:1022C8000103C0F8A0300132DAE7009800EB0411EE
:1022D8004FEA041CCB683B40B3F5000F4FD011D830
:1022E800B3F5001F35D0B3F5800F3DD0B3F5801F8F
:1022F80017D0314A3148012105F010FD6FF0150063
:1023080005B0F0BDB3F1807F42D0B3F1007FF0D1CA
:1023180050F80C3088684A6805F091FD40F4802038
:1023280009E050F80C3088684A6805F088FD40F0EC
:10233800885040F43020039001A92878CDE9012382
:10234800FFF7F4FE0028D9DB2B7801332B7001341A
:10235800A2E750F80C3088684A6805F070FD40F034
:10236800885040F40020E6E750F80C3088684A6846
:1023780005F065FD40F0E06040F40030DBE750F820
:102388000C3088684A6805F05AFD40F08270D2E740
:1023980050F80C3088684A6805F051FD40F08870A4
:1023A800C9E74FF0FF30ABE700ED00E0BCA1000843
:1023B8000F0C00200000F0FFEDAD0008089E00089B
:1023C80008B5024B1B689847002008BDF808002094
:1023D800034B044A1860937843F0020393707047E4
:1023E800F808002010000020F0B587B007460E4618
:1023F80014460021102268461D4607F0EDFA022314
:102408008DF802302A46054B019321466846CDE9EE
:10241800047603F067FF07B0F0BD00BF677E0008D1
:1024280008B50649064821F00701C1F1005202F536
:10243800803205F041F9002008BD00BF8722002046
:10244800FC0800202DE9F0410F4E104F05460024EE
:102458004FF001082B7853FA84F01F280DDCF2683E
:1024680008FA00F333EA020207D1F36057F8303074
:102478001BB107EBC002516898476A780134E3B290
:102488009A42E7D2BDE8F081000800580809002008
:10249800044B184400230133994200F8012BFADC5D
:1024A800704700BF5801002010B4074B0749024687
:1024B800D1F880401856012393402343C1F8803057
:1024C80010BCFFF745BD00BF5801002000080058A8
:1024D8001F2808DC04490122D1F88030824023EA11
:1024E8000203C1F8803070470008005803292AD831
:1024F800DFE801F0020E141F134B01221968824015
:1025080021EA02011960596821EA02025A607047FB
:102518000D4B0122196882401143F3E70A4B01224F
:102528005968824011435960196821EA02021A6009
:102538007047012303FA00F0034B1A6802431A603C
:102548005A681043586070470008005830B50A4B65
:1025580053F830408C4204D103EBC0056D689542B6
:1025680005D034B943F8301003EBC0035A6000209B
:1025780030BD6FF00F00FBE708090020034B002275
:1025880043F8302003EBC0035A6070470809002065
:10259800134B18680B68062B10D04C2B07D010D89B
:1025A800032B19D006D8013B012B07D80020106057
:1025B80000207047052BFAD0482BF8D06FF0850023
:1025C80070475C2BF3D003D8502BF0D0582BF4E78E
:1025D800602BECD0642BF0E74FF4FA40E7E700BF3C
:1025E8004401002070B54FF0B04405F0ECFC02F057
:1025F80047FBD4F808312F4A2F4D03F00F0352F848
:1026080023601368B0FBF6F6B5FBF3F5AE4202D2D1
:10261800284602F0A7FB236843F0080323602368D9
:1026280023F0F00343F0B0032360636823F47F438F
:1026380063602368980708D4236843F00103236084
:102648004FF0B04213689907FCD54FF0B043D3F868
:10265800942042F00102C3F89420D3F89420920702
:10266800FBD59A6822F0F0029A609A6822F0030279
:102678009A604FF0B042936813F00C0FFBD1AE4252
:1026880002D3284602F06EFB0C4B0B4A1A604FF03F
:10269800B04300209A6822F4E0629A609A6822F4B3
:1026A80060529A60D3F8082122F00F02C3F808217B
:1026B80070BD00BF64A60008006CDC024401002065
:1026C80008B5074806F0FDFC38B10648FFF780FE5C
:1026D8000448FEF769FB002008BD6FF01200FBE715
:1026E800789B0008F12600080A2838B5074D0446EB
:1026F80004D1AB680D215B6828469847AB6803484E
:102708005B68E1B29847204638BD00BF789B000857
:1027180038B5036904465860084D284606F0D1FCD0
:1027280040B16168AB680C311B682846984700EADD
:10273800E07038BD6FF01200FBE700BFC49A0008D4
:10274800F8B51746B7F5001F466802690C461D46DE
:1027580024D101F00302043292000F23934043EA8C
:10276800910303F003022E49023251F82220190C7A
:1027780002EA134391FAA1F2B2FA82F2D340B268A4
:102788009A4209D12046FFF7A3FE2046FFF7F6FE3E
:1027980000212046FFF7AAFE0020F8BDB7F5800FFC
:1027A80038D020492046FFF7D1FEB0BB04F0030320
:1027B80004339B000F21994041EA940101F003037F
:1027C8009B0003F1804303F58033B0689E680A0CD0
:1027D80092FAA2F2B2FA82F202F00F0226EA11414C
:1027E80000FA02F20A43B5F1806F9A600ED0B5F193
:1027F800C06F0DD005F17E4359425941490020462A
:10280800FFF774FE2046FFF74FFEC5E70121F6E704
:102818000321F4E76FF08500BFE76FF00F00BCE716
:1028280000000140DB810008014802F06BBE00BFD8
:102838003C00002008B505F0FAFC024B1B68C01AE2
:1028480008BD00BFC8090020014806F035BE00BF1A
:10285800D00100200A2307B5A0FB03230021002094
:10286800CDE90001024803F027FB03B05DF804FB43
:10287800D001002008B505F0DAFC014B186008BD4E
:10288800C8090020014B1868704700BFC80900201C
:102898002DE9F347274C9A46D4E9019307460D469C
:1028A80016467BB1244B00205B6B9847CDF800A0FF
:1028B800D4F80880206833462A463946C04702B013
:1028C800BDE8F08704F140020223BFF35B8F52E8B2
:1028D800001F012903D142E800300028F7D1BFF3D7
:1028E8005B8F9046EBD1A36C1A78AA4288BF1D7003
:1028F800A36C606C1A78394607F060F8E36C03B192
:102908001E80236D0BB183F800A00B4BDB6A984740
:1029180000216160BFF35B8F58E8003F48E8001270
:10292800002AF9D1BFF35B8F484602B0BDE8F047F3
:1029380003F058BBCC0900206CA3000810B5124C5A
:10294800BFF35B8F022354E8002F012A03D144E828
:1029580000310029F7D1BFF35B8F0CBF01200020A5
:1029680010D10A4BDB6A9847002344F83C3CBFF37C
:102978005B8F54E8002F44E800310029F9D1BFF3F8
:102988005B8F012010BD00BF0C0A00206CA300085B
:1029980010B5064B5C68FFF7D1FF30B12CB10021B0
:1029A8002046BDE8104003F01DBB10BDCC09002037
:1029B800F8B5044600AF00680D4606F082FB0346F2
:1029C8002068BBB96C4688B001686A462748C2E9E6
:1029D80005014FF400719183254942F8101F2548DD
:1029E8004FF4E251FEF7B0FC6FF01205A5462846F9
:1029F800BD46F8BDE38821792B43DD02D0F808E015
:102A0800D0F810C006D513F4402F03D0DA0748BF1A
:102A180083F44023DCF80050012623F480128E4012
:102A2800DB074CBF3543B543CCF80050DEF8003027
:102A3800984705460028DAD02368196823796C4638
:102A48008AB06A460C48C2E907354FF4007393848C
:102A58000A4BC2E9050142F8103F064800234FF42B
:102A68003151FEF771FCA546C1E700BF8FAE0008E3
:102A780003000001389E0008A8AE00080500000108
:102A880070B50D460F49BFF35B8F012051E8004F29
:102A9800002C03D141E80006002EF7D1BFF35B8F6D
:102AA8000CD1094E41F83C3CD4B2736D214698478D
:102AB8002846B36A21469847002070BD6FF00F0082
:102AC800FBE700BF0C0A00206CA300082DE9F047C3
:102AD8004FF000088EB005AC264F81468A46164650
:102AE8004146102209A80125CDE90544CDE907880A
:102AF80006F072FF8DF831503B6B0D94002B35D0EA
:102B08002346324651464846FFF7BAFF041E29DBE2
:102B1800F6B2CDE9018603953B8F174C009397F8E1
:102B2800363097F8352097F83410646A2846A0475D
:102B38000A23A840A0FB0323294609A803F0F6F9B5
:102B4800041E0FDA0D4A0E48294605F0E7F8FFF78C
:102B5800F5FE38B94FF0FF324FF0FF33294609A888
:102B680003F0E4F920460EB0BDE8F0876FF01504D5
:102B7800F8E700BFCC0900206CA30008C8AE000825
:102B8800389E0008F0B58DB000248DF8072003AEFC
:102B98000F461022214607A8CDE90366CDE9054472
:102BA800012506F019FF224B8DF829500B96BFF32B
:102BB8005B8F53E8002FA24203D143E8005100295C
:102BC800F7D1BFF35B8F2FD10DF1070243E90F64F3
:102BD8009A60184E149ADA60159A1A615F60FF219C
:102BE800736D28469847736B20469847DDE9122392
:102BF800294607A803F09AF9041E0ADAFFF79EFE91
:102C080050B94FF0FF324FF0FF33294607A803F0C1
:102C18008DF99DF8074004E0074A0848032105F0AC
:102C28007DF820460DB0F0BD6FF00F04F9E700BF46
:102C38000C0A00206CA30008E4AE0008389E0008C7
:102C480010B529B9FFF77AFED0B96FF0150010BD9D
:102C58000E4BBFF35B8F012053E8002F002A03D1EE
:102C680043E80004002CF7D1BFF35B8F0AD1084C6E
:102C780043F8381C636DFF219847636B0020984721
:102C88000020E4E76FF00F00E1E700BF0C0A002026
:102C98006CA30008F0B52C4DBFF35B8F8BB00C46CE
:102CA800012755E8003F002B03D145E80072002AB0
:102CB800F7D1BFF35B8F43D1244E2068F368984760
:102CC800E37A4BB32346103D04F11007186859689E
:102CD8002A4603C20833BB421546F7D14FF47A633C
:102CE800089300220120237B0793CDE90522CDE933
:102CF800032023890293A379019363790093F569EB
:102D0800237994F90A10A847B36D607B9847FFF7B9
:102D180015FE00200BB0F0BD0997227BB569CDE9FF
:102D28000732CDE90533CDE903330A22029222891D
:102D3800CDE900323846A37962792179A847E3E7DB
:102D48006FF00F00E6E700BF0C0A00206CA3000834
:102D580038B5084611461A460B4BBFF35B8F012462
:102D680053E8005F002D04D143E8004CBCF1000F8C
:102D7800F6D1BFF35B8F04D1044BDB6B984700207F
:102D880038BD6FF00F00FBE70C0A00206CA30008A9
:102D980038B5104BBFF35B8F002453E8002F43E88E
:102DA80000410029F9D1BFF35B8F0B490B4D43F864
:102DB800341C0B4943F82C1C0A4943F8301C2A6878
:102DC80043F8400CA3F134009047EB6A984720463B
:102DD80038BD00BF0C0A0020992900086CA3000820
:102DE800992800087D82000802460521014805F05F
:102DF80043BA00BF3C9B000802460421014805F085
:102E08003BBA00BF3C9B0008024A0348022104F079
:102E180085BF00BF02AF0008309E000810B50B4CFC
:102E2800E3691BB9BDE81040FFF7EEBF00209847E3
:102E3800074B1B6E03B1984794F8203023B1BDE8C7
:102E48001040024800F020B910BD00BF200A002041
:102E58006CA3000870B54FF4B011466805461E48CB
:102E6800FFF7A6FD18B16FF00404204670BD1B489B
:102E78004FF4B011FFF79CFD0028F4D11849194808
:102E880006F079F9284600F009F9044628B1164AEF
:102E98001648012104F042FFE7E7306806F011F90F
:102EA80038B9134A1148012104F038FF6FF01204B1
:102EB800DBE7F06818B106F004F90028F1D02846DD
:102EC800FFF766FF051ED0DA0A4A0848012104F018
:102ED80025FF2C46C9E700BF88A2000880A2000889
:102EE800252E00082C0A002031AF0008309E00086B
:102EF8004FAF000864AF0008014B93F820007047FB
:102F0800200A002008B503461048042B80F820301A
:102F180011D005D8BBB10020FFF766FF00200EE0F6
:102F2800053B022BF7D80020FFF766FFBDE80840F5
:102F38000120FFF759BF0020FFF756FF0120BDE829
:102F48000840FFF759BF05F069FAE4E7200A0020B6
:102F5800014BD861704700BF200A002010B5044C0F
:102F6800204605F040FA012384F8203010BD00BF48
:102F7800200A002010B5054C204600F07DF800B965
:102F880010BD00210A2002F095FDF5E7200A002077
:102F980070B58CB00D46DDE91061CDE9063104ABA2
:102FA800CDE90402CDE90852009308AA0223044699
:102FB800CDE90A61CDE90223019305F0A5FA0F488E
:102FC800ADB9A6B983680E491D686A463346A84755
:102FD8000028034604DA0B4A0B48012104F0A7FE37
:102FE8002378842B01D0FFF7C5FF0CB070BD836830
:102FF80003491D68014802AB6A46E8E78C9B000854
:103008006CA2000887AF0008309E000870B5124D0A
:1030180086B0284600F038F8C023ADF8043001AB7C
:10302800029302230393012402AB049305940B48F3
:103038000B49836804AA1E680023B047031E06DAFA
:10304800084A0948214604F072FE06B070BDFFF731
:1030580091FF85F82040F8E7200A00208C9B0008A3
:103068006CA2000887AF0008309E0008014805F0F0
:10307800D3B900BF200A0020024B5869C0F34000B2
:10308800704700BF00040058034B4FF48022C3F878
:1030980084213220FEF75CBF00E100E0002208B581
:1030A80011463220FEF776FF054AD2F8903043F4F5
:1030B8008053C2F890303220FEF74AFF002008BD46
:1030C80000080058044A13680BB100215972436183
:1030D800106005F0D2B900BF440A002037B5044695
:1030E80001A805F0B7F86CB1174D2A68134673B9F3
:1030F80063682360012323816AB9FFF7BBFB20467D
:10310800FFF7E0FF01A805F0AFF803B030BD9C421F
:10311800F8D05B69EBE7FFF78DFB236818442B6851
:1031280020601A689042EAD35A69596911B95C61FA
:103138006161E7E71168884202D913465269F4E7EA
:103148005C616261DEE700BF440A0020F8B5FFF762
:1031580099FB1C4C0546FFF78DFB2368A3B1471B61
:103168001E462D1A716929B95A692260DA681972DE
:1031780042B9FEE70A68BA428CBF521900220A60B7
:103188007669EFE718699047002623682BB920680D
:1031980080B9F8BD18699047F7E71D68FFF74AFB43
:1031A8008542F4D223685A692260DA681E72002ABE
:1031B800F0D1FEE7437A002BEBD1BDE8F84005F0EB
:1031C8005CB900BF440A002037B5134D044601A876
:1031D80005F040F82B686BB164B10022A34222725B
:1031E80011D1597A5C6961B15A7244B120462C6098
:1031F80005F043F901A805F037F803B030BDFFF733
:1032080023FB2C60F6E71A465B69002BF2D09C4240
:10321800F9D163695361EDE7440A002007B5074B0C
:103228001B7840BAADF804002BB9022201A940F27C
:10323800BC6005F08DF803B05DF804FB120C0020AB
:1032480007B5074B1B7840BAADF804002BB902222A
:1032580001A940F2BE6005F07BF803B05DF804FBFD
:10326800120C002010B50C4B1B7804469BB94FF488
:10327800D76005F0A2F8C4F3002100F0FE00014376
:103288004FF4D76005F078F8E1B240F2B960BDE8D4
:10329800104005F071B810BD120C002013B504469B
:1032A80004F0FBFF04F0070314F004048DF8073062
:1032B80008BF084B4FF001020DF107014FF08400E1
:1032C80008BF1C7005F024F80020FFF71BFE02B0B1
:1032D80010BD00BF100C002010B50446FFF73EFEDD
:1032E8002046FFF735FEFFF791FE002005F02BF989
:1032F80004F0D8FF04F0E2FF034B00221A70BDE887
:1033080010400120FFF7FEBD100C0020134B98421F
:1033180007B50BD94EF6E113ADF80430022201A926
:10332800982004F0F5FF03B05DF804FB0C4B9842BD
:1033380002D94DF6D733EFE70A4B984202D94CF23F
:10334800C153E9E7084B984202D948F27513E3E7FD
:10335800064B9842E2D946F66B73DDE700E9A435DF
:1033680080F8A9328044E52D000B6B1B40FC5419F2
:1033780037B5104D2B7804461BB9FFF7C7FF01235B
:103388002B7043F6095241F68463B4FBF2F102FB59
:10339800114403EB8433B3FBF2F3042203EB8133D0
:1033A8001BBA0DEB02018620019304F0B1FF03B0B4
:1033B80030BD00BF100C002007B5064B8DF8070084
:1033C800187001220DF107018A2004F0A1FF03B053
:1033D8005DF804FB120C0020014B1878704700BF01
:1033E800120C002013B5224A0446516810686B4637
:1033F80003C3204B20781B78834201D0FFF7DCFF02
:1034080023781BB1012B2ED002B010BD62681A4B75
:10341800B3FBF2F31A0C8DF800201A0A8DF801207C
:103428008DF80230A268237B8DF8033043F60951EA
:10343800637BB2FBF1F08DF8043001FB102241F6FA
:10344800846303EB8233B3FBF1F303EB80331A0C91
:103458005BBA8DF80520ADF80630082269468B2046
:1034680004F056FFD0E7236900930422F6E700BF73
:10347800849E0008120C00200000093D1FB52B4A4D
:103488000446D1689068127C01AB03C31A70284BBC
:1034980020781B78834201D0FFF78EFF23781BB179
:1034A800012B31D004B010BD637AF12B20D14FF637
:1034B800FF70FFF7B3FE48F20500FFF7C1FE0223D5
:1034C8006288A188ADF8061052BAE188ADF80420E8
:1034D8008DF80B30227AA37A8DF80A20ADF80810FF
:1034E8008DF80C30092201A98C2004F011FFD9E7CE
:1034F800F22BE5D141F60F50FFF790FE41F2210083
:10350800FFF79EFE0623DBE7A3890A4A5BBAADF8FC
:103518000430A37B13708DF80630E37B8DF80730F9
:10352800238AADF808300622DDE700BF849E000834
:10353800120C0020110C002037B505460C4602225B
:1035480001A9132004F0F2FE0A4B1B78012B0DD1C0
:10355800094B1B78012B09D140F2027004F02DFFB2
:103568009DF805302870237003B030BD9DF8040025
:10357800F6E700BF120C0020110C002013B503223F
:10358800044601A9142004F0D1FE184B1A782270C1
:103598004AB1012A17D013220021601C06F01CFA38
:1035A8000F2323700DE09DF8043023719DF805303A
:1035B800A2605B425B10A3719DF806305B425B1012
:1035C800637102B010BD9DF804305B425B10237339
:1035D8009DF9053002339B1063739DF806305B42FA
:1035E8005B10A373024B1B682361EAE7120C0020EF
:1035F800480A0020034B1B6813B15B6803B11847E6
:10360800704700BF700B0020034B1B6813B1DB68C9
:1036180003B11847704700BF700B0020014B01220F
:103628001A707047150C002008B5FFF765FC0438C0
:10363800C0B2032896BF024B0020185C08BD00BF2B
:10364800B1AF000838B50C46002340F201211A46F4
:103658000546084605F0A1F8FFF7BEFE0C4B012809
:103668000C480CBF83F8C74083F8C040FFF706FF3B
:1036780021462846002204F08EFF074B07481968A8
:1036880004F019FFBDE838400448FFF727BD00BF24
:103698007C0A0020340B00208C0B0020640A0020D8
:1036A80038B50D461446FFF763FE2846074D04F06B
:1036B80008FE05F004F84FF47A712846614304F0D7
:1036C800FAFE2846BDE83840FFF708BD640A002026
:1036D80073B5574D01A804F0BDFD2C78002301A84F
:1036E8002B7004F0C1FD002C61D005F06BF8044686
:1036F80005F00BF901A804F0ADFDFFF7B7FC0128B0
:1037080008BF287001A804F0AFFDE5070BD54948AC
:10371800FFF75AFD0120FFF7F5FB474B1B6813B174
:103728001B6803B19847A00711D54448424EFFF7DC
:103738004BFD14F0400F424B3BD01B7813B90120CE
:10374800FFF7E0FB336813B11B6903B19847210603
:103758000AD50120FFF7D6FB374B1B6823B19B69BD
:1037680013B1C4F300209847A2050FD5FFF7C4FB97
:1037780004284CD12F48FFF727FD0120FFF7C2FB93
:103788002D4B1B6813B15B6803B19847A3060ED590
:103798002A48FFF719FD2A4B1B7813B90120FFF7B8
:1037A800B1FB254B1B6813B1DB6803B1984702B026
:1037B80070BD1D7895B90120FFF7A4FB294640F696
:1037C800021004F0D9FD40F6441004F0F6FD40F074
:1037D8000201C9B240F6441004F0CEFD194D1A4852
:1037E800FF220DF1030105F077F82846FFF7C6FE22
:1037F8003368002BABD09E68002EA8D095F90D3009
:1038080095F90C209DF803100F48B0479FE7FFF784
:1038180073FB0528BAD10948FFF7D6FC0120FFF74A
:1038280071FB054B1B68002BB0D0DB68ACE700BF11
:10383800150C0020640A0020700B00204C0A0020A0
:10384800150D0020740B0020160C002010B590B147
:103858000A4B012219461C68A04206D39C68A04264
:1038680003D201EBC201087910BD0132162A03F117
:103878000803F0D1FEE71F20F6E700BFBCA200084E
:103888000128094806D1094B80F8C7101970B830CB
:10389800FFF7F4BD90F8BF30012B04D1034B80F83B
:1038A800C0101970F3E770477C0A002068010020F7
:1038B80000234FF6FF7110B51A460446084604F077
:1038C8006CFF34B10948214604F0F5FD0748FFF7BD
:1038D80005FC074B1B782BB16FF07F40BDE810400B
:1038E80004F062BE034B18688001F7E74C0A002019
:1038F800150D0020880B002000234FF6FF7110B52E
:103908001A460446084604F048FF34B109482146DF
:1039180004F0D1FD0748FFF7E1FB074B1B782BB1FB
:103928006FF07F40BDE8104004F08BBE034B186871
:103938008001F7E74C0A0020150D0020880B0020B5
:10394800F0B5BDF814409DF818C09DF81CE09DF82E
:10395800205040B1012814D00122002398180138C2
:10396800B0FBF2F0F0BD8CF0010CE30003EBCC03EC
:1039780018330EEB450503EBC5034FF47A714B433F
:10398800ECE7501F012803F1040304D80C2C38BFBE
:103998000C24002706E0C1B9A2F10B07012F8CBF48
:1039A800002701272801BCF1000F00EBCE000CBF57
:1039B80014250025A0EB8200062A4FEA8206284437
:1039C800A2F1020C08D835460BE00129E1D1A2F199
:1039D8000C0047424741E5E70830002FF3D04FEA93
:1039E8008C050028ACBF2E182E1C701E90FBF5F01D
:1039F80003FB0044094B062A5A5C8CBF0C340E3476
:103A08000A2A0AD8A30001334FF47A7103FA0CF397
:103A18004B43034951F82220A0E7FFDEB5AF000869
:103A280090A200080D4B10B504461870587000F0AD
:103A380017F85CB134214FF4E86004F09DFC442190
:103A4800BDE8104040F2417004F096BC14214FF4D8
:103A5800E86004F091FC2421F2E700BF130C002079
:103A680008B50120FFF7A8FC054B18785A78824260
:103A780004D05870BDE80840FFF7D4BF08BD00BFA8
:103A8800130C0020012808B506D00020FFF794FC8D
:103A9800034B00225A7008BDBDE80840FFF7E0BF9D
:103AA800130C00202DE9F04F85B089469DF84C1085
:103AB80000919DF85C109DF844A0BDF84070694CD9
:103AC800DFF8A4B1BDF83C602170002918BF0027B9
:103AD800BAF1000F15469DF8482008BFFF228BF861
:103AE8000020804620B1012854D005B0BDE8F08FF1
:103AF8005E4C04F0EFFD0B234FEA490084F8EC30EC
:103B080084F8E080C4F8E450FFF7A0FE41F604030F
:103B1800A4F8BC309BF8003084F8C030009B84F8CF
:103B2800ED00002B0CBF0123F22384F8C130F6000E
:103B380001238AF0010A84F8C23084F8B880A4F816
:103B4800BA6084F8BE8084F8BFA004F0ECFE94F854
:103B5800E000003818BF0120FFF794FF04F1E000EF
:103B6800FFF740FC04F1B800FFF788FC404A1068F2
:103B7800516802AB03C302A804F0DCFC40F2FF105A
:103B8800FFF770FB4FF4FA537B43B3FBF5F3394A65
:103B98001360AAE70020354C019304F09BFD3649D9
:103BA800019B11F8091084F8E080EAB284F8F0204B
:103BB800B9F1000F45D10B3D012D8CBF0025012522
:103BC800053A012A02D80C2E38BF0C2684F8F230A8
:103BD800012384F8B8309BF8003084F8C730009B84
:103BE80084F8C8309DF8583084F8C93084F8F1104A
:103BF80084F8F350A4F8C46084F8C6A004F093FED7
:103C080094F8E000003818BF0120FFF73BFF1B487D
:103C1800FFF7E8FB1A48FFF731FCF8B204F066FD3D
:103C280094F8C930012B40F2367014D104F0C5FB6A
:103C380000F0FB0140F2367004F09EFB4FF6FF7374
:103C4800A5E7B9F1010F04D1A5F10C0045424541A2
:103C5800B6E70025B4E704F0B0FB40F00401C9B2B0
:103C6800E8E700BF150D0020680100207C0A00204D
:103C7800959E0008880B0020B5AF00085C0B00205B
:103C8800340B00202DE9F74F0C9DBDF838709DF8D6
:103C98003C909DF840A088469346064648B10128C6
:103CA8004DD040F6890004F088FB40F00401C9B209
:103CB8008DE0524C0B2284F8E000580084F8EC2088
:103CC800C4F8E450FFF7C2FD41F60403BAF1000F4F
:103CD800A4F8BC300CBF0123F22384F8C130FF00E4
:103CE800012389F0010984F8C23084F8ED00C4F892
:103CF800E8B084F8B860A4F8BA7084F8BE6084F8B4
:103D0800BF9004F010FE94F8E000003818BF0120BE
:103D1800FFF7B8FE04F1E000FFF764FB04F1B80018
:103D2800FFF7ACFB364A106851686B4603C3684618
:103D380004F000FC40F2FF10FFF794FAB1E72F4CB3
:103D4800304984F8E000EAB2C95C84F8F020002B1E
:103D58004AD10B3D012D8CBF00250125053A012ACA
:103D680002D80C2F38BF0C279DF8343084F8F23075
:103D7800012384F8B830244B84F8F1101B7884F8B8
:103D8800C7309DF84C3084F8C93084F8F350A4F853
:103D9800C47084F8C69084F8C8A004F0C4FD94F8F0
:103DA800E000003818BF0120FFF76CFE1748FFF746
:103DB80019FB1748FFF762FB94F8F130062B7FF4E4
:103DC80070AF40F6890004F0F8FA00F0FB0140F605
:103DD800890004F0D1FA404604F073FA149A0D4BA6
:103DE8001A6003B0BDE8F08F012B04D1A5F10C03D4
:103DF8005D425D41B2E70025B0E700BF7C0A0020C4
:103E0800959E0008B5AF0008680100205C0B0020F3
:103E1800340B00208C0B002008B5174B186017488E
:103E2800FFF75AFA002004F08EFB012004F089FC09
:103E38000021084604F036FD0421002004F0EFFCC0
:103E480000234FF6FF711A46084604F0A6FC40F618
:103E5800AC0004F0E4FD40F6890004F0E0FD0849F8
:103E6800084804F020FB0849084804F01CFB084BEC
:103E780000221A7008BD00BF700B0020253600080C
:103E8800FD350008640A0020113600084C0A00209D
:103E9800150C00202DE9F0471E4F044600EBC10623
:103EA8000025B44201D1002014E02068C30600F0C8
:103EB8001F0911D4656845F02005C0F3471AC0F3FF
:103EC80043200A2823D857F82080B8F1000F0DD1D5
:103ED8006FF01200BDE8F087B9F1100F04D0B9F106
:103EE800110FEAD16568E8E73025E6E7404605F0B6
:103EF800E8F80028ECD04B462A460AF00F01404665
:103F080004F07EF9002804F10804CADAE2E76FF049
:103F18001500DFE7D8A300082DE9F843054600AFF0
:103F2800466804F0D3FD6B68706A93F8224004F089
:103F3800030914F0030418BF012430B921462846A8
:103F480004F0FFFDBD46BDE8F88306F1240805F03E
:103F5800B8F80346B0B9726A6C4688B011686A4608
:103F68000F48C2E905014FF4007191830D4942F8E9
:103F7800101F0D484FF4E251FDF7E6F96FF01200FB
:103F8800A546DFE7B9F1000F07D04FF4D01140463E
:103F980004F029FE0028D1DAD4E74FF4B011F6E78F
:103FA800B8AF000803000001189E0008012912D0CC
:103FB800022907D089B90068094BC01A18BF012027
:103FC800000370470068064B984214BF4FF44050F6
:103FD8004FF400507047002070474FF4005070476E
:103FE8000080004070B51D46094B002633F81220AA
:103FF8003346FCF79DF8090241EA10616C0800029B
:1040080020182A46334641F10001FCF791F870BDAB
:1040180078A700082DE9F04782B00369D0F804902A
:10402800064618688368DB680C4600AFD9F80C10A0
:1040380043B9364A3648012103F070FE0837BD46B9
:10404800BDE8F0873A1D98470028F2DBD9F8003020
:10405800304A93424AD1D7F80480DFF8BCA0002543
:104068002346AAB240460021FFF7BCFFA0F54070E6
:10407800504518D901350C2DF2D16D468AB03368F8
:104088006A462649D461C2E905134FF400731384C4
:10409800234B42F8103F1E4800234FF41151FDF7FF
:1040A80053F9AD46CAE71B4AD36A23F00F032B43E3
:1040B800D362D9F80060002CC0D01A4B33F8152011
:1040C800002319464046FCF733F8090241EA10611B
:1040D80063080002C01822464FF0000341F10001B6
:1040E800FCF726F8C0F31300F060A7E71A6822F47B
:1040F80000421A60D9F800207B68002C9ED003EBA0
:104108005403B3FBF4F39BB2D36097E70AB00008FB
:10411800409E000800800040FFFC0F0038B00008F7
:104128000400000178A700082DE9F8430A7903691B
:1041380045685F68012A06460C4650D0931ED3F1A5
:10414800000848EB03084FEA882861792846FFF7FA
:104158002DFF94F80690B9F1020F034642D0B9F149
:10416800040F43D0002A4BD0033A012A40D94FF418
:104178008050B3F5805F45D0B3F5405F44D0002B45
:104188000CBF01230323994232D1414604F0BBFD01
:1041980081452DD1E3796BB1012B37D12B681D4AAD
:1041A800934207D0A2F57442934203D002F57052AD
:1041B80093421DD12A68136823F001031360214636
:1041C800304604F05DFE2A68136843F0010313606B
:1041D80094E8030087E803000020BDE8F8834FF463
:1041E800C068B2E73AB94FF08050C2E7002ABED0A3
:1041F8006FF08500F1E7033A012AF9D90020B8E702
:104208001046B6E70023BEE70223BCE7032BC5D060
:10421800EEE700BF00380140F0B583B00469466896
:1042280005466248206000AF04F04BFF50B9604A71
:104238006048012103F072FD6FF0120420460C372C
:10424800BD46F0BD2068F16883681B68984704463E
:10425800E0B9306A3A1D002104F016FC041EEDDBBB
:104268007B68002219791868FFF714FE041EE5DB45
:104278006C682B6922685E68136823F00103136079
:10428800606804F01EFF48B94B4AD1E74B4A4948D9
:10429800012103F043FD002CD0DBDAE7D4E901016A
:1042A8008368DB6803B19847226852E8003F43F00F
:1042B8000C0342E800310029F7D13146284604F0C2
:1042C800DFFD237D23B12268936843F008039360E0
:1042D800637D23B12268536843F400435360A37D90
:1042E80023B12268536843F480335360E37D23B1DC
:1042F8002268536843F400335360227E2368002AFF
:104308003ED02F4A93421ED0A2F5744293421AD04F
:1043180002F57052934216D06C4688B02B686A46F4
:104328002849C2E905134FF400739383264B42F8DA
:10433800103F204800234FF4E251FDF705F8A54649
:104348006FF015047AE76B681A68936843F4804342
:1043580093602268617E136823F0787343EA4153BF
:1043680013602268A17E136823F4F81343EA01431B
:104378001360E37E23B12268936843F4004393609B
:10438800237F23B12268136843F000531360226827
:10439800136843F0010313602368DA699102FCD5BE
:1043A800DA695202FCD5002448E700BFC49A000825
:1043B8004FB00008409E00088EB000086EB000089C
:1043C80000380140A9B00008030000012DE9F043BE
:1043D80083B00669D0F8048000AF0546424C2046F9
:1043E80004F06FFE58B9414A4148012103F096FC98
:1043F8006FF0120420460C37BD46BDE8F083A36871
:10440800D8F810101B6820469847041E05DA394A68
:104418003748012103F082FCECE76B681D7AB5B9D7
:10442800D8F804003A1D294604F02EFB041E07DBC9
:104438007B682A4619791868FFF72CFD041E06DAEE
:104448002D4A2B482346012103F071FCD2E7B568B9
:104458004FF00108D6E9023203EBC2039D4204D3B0
:10446800304604F001FE0024C4E7286804F029FE61
:104478000346B0B92A68297910686C468AB06A463A
:104488001E4DD1614FF4007111841D49C2E90550D8
:1044980042F8101F16484FF41151FCF755FFA54676
:1044A800A6E728682979EB88D0F810C0D0F80890DA
:1044B800DCF80040DA0754BF43F4B01383F4D01398
:1044C80023F4801208FA01FEDB074CBF44EA0E040D
:1044D80024EA0E04CCF80040D9F800309847041EAE
:1044E80088DB0835B6E700BFC49A00084FB000085B
:1044F800289E000806B1000821B100083FB1000855
:10450800040000012DE9F04F8DB0994600AF4368D3
:1045180004691E687A608246884612B9B9F1000FAC
:1045280037D0B8F80430990438D44FF0FF324FF040
:10453800FF3304F1100000F0C7FEC4F80480DFF870
:1045480014C1DAF810B0DAF804E0BCE80F0007F19B
:1045580010050FC59CE80F0085E80F00DBF8002068
:10456800B8F80430DEF800509045C3F3451100F068
:10457800C980082919D0102917D06FF08509236838
:104588009B8813F4005304D1636004F1100000F019
:1045980075FE48463437BD46BDE8F08FA369002B49
:1045A800C3D163689845C0D1C9E713F4004F6B685D
:1045B800294814BF43F0100323F010036B6083688D
:1045C800DEF81010DB683BB9244A2548012103F0C6
:1045D800A5FB6FF00409D2E707F10C029847002801
:1045E800F2DBF968D8F80000012321FA03F28242CD
:1045F80019D90133092BF8D16D468AB06A46194B8F
:10460800C2E905304B08D361090A0523116242F853
:10461800103F134800234FF42151FCF795FE6FF02B
:104628001509AD46ABE72A6807F1300122F04002D0
:104638002A6001EB83032A6853F8243C22F03802ED
:1046480013432B60B8F804309A070DD42B6823F075
:1046580002030CE0589E0008C49A000863B10008E1
:10466800289E00088FB100082B6843F002032B60D6
:10467800B8F8043013F0040F2B6814BF43F001039B
:1046880023F001032B602B6823F444432B60B8F814
:10469800043013F0100F2B6814BF43F0800323F08D
:1046A80080032B602B6823F400532B60D8F8083064
:1046B800002B00F003812B6843F400732B606B68B8
:1046C80023F004036B60B8F8043013F0010F2B6873
:1046D80014BF23F4827343F482732B60B8F8043058
:1046E800C3F34513082B6B6806BF23F4706343F4C8
:1046F800E06343F470636B606B6843F480536B60F2
:10470800CBF80080B8F804307968C3F34513082B58
:104718000CBF012302234A46204604F062FCB3681A
:10472800DB0700F1DB80336843F040033360DAF8DD
:1047380010502868002840F0D380DAF804301B7A3B
:1047480033B18B4AD2F8903023F40043C2F890304A
:1047580023689B88DD0700F11581B2689007FCD5B6
:10476800C3F34513082B626D40F0D080002A00F097
:10477800C480A36D03B11378DBB23373A36DA3B107
:10478800013BA365002B40F0BA80636C0833636477
:10479800A36C013BA364012304F1580204F148010E
:1047A80004F1440004F007FC6065B368D907FCD540
:1047B80022689288C2F34512082AD4E9173140F0DA
:1047C800C280327BD2B20BB101B11A70236EA3B191
:1047D800013B2366002B40F02B81E36C0833E36434
:1047E800236D013B2365012304F1600204F15001AC
:1047F80004F14C0004F0DFFBE065B36813F4B87310
:1048080000F025816D468AB06A465A4951615A4975
:10481800C2E906134FF400731384584B42F8103F53
:10482800574800234FF41151FCF78EFDB368580622
:10483800AD4605D5F368FB60FB68B368FB60FB68B1
:104848006FF00409DAF80430DAF810601D6833688C
:104858006BB19A685AB1998811F4805807D11869D0
:1048680004F020FC30684146083004F0E9FBDAF82F
:1048780004301B7A33B13E4AD2F8903043F40043F7
:10488800C2F89030AB68D90700F1EB802B6803F4CD
:104898008273B3F5827F02D1AB681A06FCD4AB6889
:1048A8009B0606D5AB683B613B692B6823F0400348
:1048B8002B602B6823F040032B6060E6B8F80430C7
:1048C80013F0010F2B6823F400737FF4F7AE43F461
:1048D80080232B606B6843F00403F3E6337B1EE709
:1048E8008368002B3FF429AF0121083004F0A8FBAE
:1048F8002B68186904F0D6FB1FE713463CE7636D85
:10490800002B3FF452AF013363654EE79AB1A36DB4
:1049180003B113889BB2B381A36D002B3FF445AF5D
:10492800013BA3654BB9636C08336364A36C013B1B
:10493800A364022330E71346ECE7636D002B3FF4D2
:1049480034AF0233E0E7F2680BB101B11A80236E8D
:10495800002B3FF452AF013B2366002B71D1E36C6F
:104968000833E364236D013B236502233CE700BF62
:1049780000040058BEB10008C9B1000804000001D5
:10498800289E0008B26892074DD5A26D002A4AD029
:10499800C3F34513082B626D30D113783373A36DBD
:1049A80093B1013BA3651BBB636C08336364A36CC1
:1049B800013BA364012304F1580204F1480104F106
:1049C800440004F0F8FA6065B368DD077FF515AFB9
:1049D800E36D002B3FF411AF226E002A3FF40DAFB8
:1049E80022689288C2F34512082A28D1327BECE665
:1049F800636D002BE8D001336365E5E71388B38165
:104A0800A36D002BE0D0013BA3653BB9636C083371
:104A18006364A36C013BA3640223CCE7636D002BA2
:104A2800D2D00233E8E7736823F080037360CBE7E2
:104A3800E36D002B3FF4E1AE0133E365DDE6F26898
:104A480084E7E36D002B3FF4D8AE0233F5E7A36D9E
:104A5800002B7FF47DAE236E002B7FF479AE994650
:104A6800F0E62B7B0EE700BF10B54FF0E0230F49AF
:104A78009C691A6908689B690D4902F4803234B947
:104A880093B903464AB90A681044C01A10BD002BEE
:104A980008BF03460AB9A342F5D90A6802440A6066
:104AA8004FF0E0221269EEE70446F3E7CC0B002052
:104AB800C00B00200A4B102283F82320094B4FF427
:104AC80096521A60084B002018604FF0E02341F21C
:104AD800BF225A6198611A6942F007021A61704749
:104AE80000ED00E0CC0B0020C00B002008B5FFF75C
:104AF800BBFF0C4B0C4A1868116808441060002270
:104B08001A600A4A13684FF49651C01AB0FBF1F0C4
:104B180001FB0033136001F0D9F8BDE80840FCF749
:104B280065BF00BFC00B0020C80B0020C40B0020CD
:104B38002DE9F041334E91B1421C0AD14FF0E022E9
:104B4800136923F0010313614FF07F433360BDE81D
:104B5800F0813468012807DC4FF000080BE0431CA3
:104B68003468F7D140F6A65040F6A7539842A8BF3C
:104B7800184600F1FF384FF01003EFF3118583F367
:104B88001288BFF36F8FFFF76FFF4FF0E023DFF856
:104B980078C09F69DCF8003018441C4B00221A606A
:104BA8001B4B1A68831A2AD44FF4965E0EFB0833FF
:104BB80003F595531F33B3FBFEF1131A0EFB0133B4
:104BC800B3F5806F134A38BF4FF48063934228BF10
:104BD80013464FF0E022336091698F42A7EB01073B
:104BE80003F1FF3338BF3F19536138440023936101
:104BF800CCF8000085F31188BFF36F8FA7E74FF457
:104C08008063E6E7CC0B0020C80B0020C00B002017
:104C1800C40B002080E8FF0038B54FF01003EFF315
:104C2800118583F31288BFF36F8F084B1C68084BFC
:104C38001B68E41AFFF718FF85F31188BFF36F8F1D
:104C48004FF496532044B0FBF3F038BDC80B002056
:104C5800C40B002038B54FF01003EFF3118583F330
:104C68001288BFF36F8F054B1C68FFF7FDFE85F3B5
:104C78001188BFF36F8F204438BD00BFC80B0020D8
:104C880010B54FF0B0439A68D96812F00C0205D0FD
:104C98000C2A4AD101F00303012B53D14FF0B04144
:104CA8002C480B6813F0080306D00B6813F00803B0
:104CB80037D1D1F8941007E00C68240756BFD1F813
:104CC80094300968C3F3032350F82330002A0CBF3B
:104CD800184600204FF0B0418A6802F00C020C2AF6
:104CE8001ED1CA6802F00302022A31D0032A06D173
:104CF8000B68194A13F4801F184B08BF13464FF06E
:104D0800B042D068D168D268C0F306205843C1F3D6
:104D180002130133B0FBF3F0530F0133B0FBF3F090
:104D280010BD0B68C3F30313CEE7042A07D0082A83
:104D380008D11B6813F4801307D10748CAE708484D
:104D48000023C7E700231846C4E704480023C1E747
:104D5800034BD4E724A6000800127A0000093D009E
:104D68000024F4001F4A034607CA84B00DF1100C52
:104D78000CE9070018463BB31B4B1B6803F4C063E0
:104D8800B3F5007F22D1194B984229D8184B984285
:104D980024D9184B98428CBF02200120164904AB35
:104DA80003EB80000B6850F80C2C23F00703134327
:104DB8000B60086800F0070082421CBF086800F01A
:104DC8000700831A5842584104B070470B4B984269
:104DD80006D80B4B984201D90A4BDBE70020DDE7E8
:104DE8000020F1E7789E000800040058006CDC02FF
:104DF80080A8120100512502004000580024F40048
:104E0800808D5B00001BB70010B50446FCF7B8F9AD
:104E18000348044A012102F081FF204604F05CF9AE
:104E2800109E000802B200082DE9F843044600AFBE
:104E38000D464FF01003EFF3118883F31288BFF388
:104E48006F8F0428284A98BF284B9668117C94BF16
:104E580053F82030264BE9468AB06A462548C2E90D
:104E6800073140F201339384234BC2E9050442F829
:104E7800103F224800234FF43151FCF765FACD4624
:104E880045B1EB69C3F3080323B11D4A1B4801214F
:104E980002F044FF2EB1304604F034F908B103782B
:104EA80003B91848E9468AB06A46174BD061C2E987
:104EB800053640F201331384144B42F8103F0023A7
:104EC8000E484FF41151FCF73FFA2946CD462046CB
:104ED800FFF79AFF88F31188BFF36F8F3046FCF70E
:104EE800C7FFBD46BDE8F883D40B0020A4A6000880
:104EF80011B2000827B2000805000001109E000842
:104F08004FB200081FB2000870B200080400000188
:104F1800104B70B553F82040013053F82060A6427A
:104F280000D870BDD4E9003595B153B128469847EB
:104F380038B10028B8BF4042EB68FF28A8BFFF205F
:104F48001870EA68537843F0010353700834E6E7B1
:104F58009847FBE7B8A6000808B50A4B01220320CA
:104F68001A70FFF7D5FF01F065F80420FFF7D0FFAE
:104F780000F038F9FBF72EFB034A137B23F00103FB
:104F8800137308BD160D00206007002008B50348FC
:104F9800034A0021121A04F0A8F808BD20020020D4
:104FA800180D002070B5002386B00122CDE9042336
:104FB800194E1A4D01930F22CDE9023218491423D4
:104FC80003FB005506EBC01604464FF4A070154BC2
:104FD80000954FF4807200FB0411304600F096F8FB
:104FE800737B114AEE6023F0040373734FF4046378
:104FF80004FB033313446B600C4B2C74BFF35B8FBF
:1050080053E8001F013143E80012002AF8D1BFF32A
:105018005B8F06B070BD00BFE0060020D40B0020F7
:10502800C01800201591000880100020D00B002027
:1050380080B50020A6B0FFF76BFF2D4B83F30888DF
:105048002C4D2D4E6B692D4F43F400736B6100247A
:10505800F02385F82230EC772C766C76AC7685F8E0
:1050680020406B6A43F4E0236B62FCF7D9FEFDF73E
:105078000DF84FF0FF33AB62EB62FDF7F1F8FDF787
:1050880039F8FBF7EFFF40F20113ADF8243006AB17
:10509800B360CDE91F44229404F012F80120FFF711
:1050A80037FF0220164DFFF733FF00F079FC154B50
:1050B80075610593012314490094CDE903434FF426
:1050C80080623B46CDE90144284600F01FF86A7B20
:1050D800064622F0040228466A7304F0BDF820460A
:1050E800FFF760FF3A4631462846FCF7B3FF00BF9A
:1050F800C018002000ED00E0D40B0020614F00082C
:1051080060070020D2B20008001A00202DE9F04301
:1051180085B00732994600F1580322F00706C0E926
:105128001633109B037306F14005042300274373CD
:105138000D440F9B83738846C0E90677294687602C
:10514800C7730446FCF724FC08F140030730C4E9A0
:10515800193620F007000E9BE06602930D9B019321
:105168002D1A0C9B00932A464B4641462046FCF7D5
:105178003FFF054B67659B6803B11B6F2367284694
:1051880005B0BDE8F08300BFD40B0020F0B587B0B0
:1051980000250595109D04950F9D03950E9D02957C
:1051A800DDE912760D9D01950C9D00950446FFF7EB
:1051B800ADFFB6F1FF3F08BFB7F1FF3F05D056EA94
:1051C800070305D1204600F09DFB204607B0F0BD3F
:1051D80003493A46334604F1180000F001FDF4E7AC
:1051E8001F93000870B5224C224D86B02646AE4269
:1051F80004F130040AD300F0A3FB1D4C1E4EAC4250
:1052080020D306B0BDE8704000F0AEBB54F80C3CAB
:10521800059354F8103C049354F8143C039354F841
:10522800183C029354F81C3C019354F8203C00931A
:1052380054E90A2354E90C01FFF768FF54F8303C9D
:105248005E65D3E7D4E90A23B3F1FF3F08BFB2F1A3
:10525800FF3F05D052EA0301206803D100F052FB5A
:105268003034CCE73146183000F0BAFCF8E700BF1C
:10527800E09D0008E09D00081F93000838B504462B
:105288004FF01003EFF3118583F31288BFF36F8F8C
:1052980004F05CF848B10022C26703F0DDFF29463C
:1052A8000848BDE8384000F01BBBD4E902329A42F6
:1052B80018BF0133A360022104F1100004F036FA8C
:1052C800EDE700BF170D002013B54FF01004EFF302
:1052D800118184F31288BFF36F8F846844B1013C55
:1052E800846081F31188BFF36F8F002002B010BD76
:1052F80052EA030406D181F31188BFF36F8F6FF070
:105308000F00F3E7CDE900230246024800F0CAFA8D
:10531800ECE700BF170D00202DE9F04F4A4E85B08D
:1053280004464FF0FF384FF0FF394FF01003EFF30A
:10533800118783F31288BFF36F8FD4F880508DB92B
:10534800022104F1980003F004FF002843D1002350
:10535800CDE90089029304F1880239463B4800F000
:10536800CDFBE2E7D4F884202B68C4F8803095425E
:1053780008BFC4F88430D4F8983043F00203C4F866
:105388009830EB6823F0040343F00103EB606B688B
:1053980087F31188BFF36F8F284698474FF01003A3
:1053A800EFF3118B83F31288BFF36F8FEB689907C4
:1053B80023F0010219D4EA60D4F8983023F00203EC
:1053C800C4F898308BF31188BFF36F8FDB05ACD42A
:1053D80000F0EEFAA9E704F1900500220121284621
:1053E80004F01FF80028F8D1B1E7306823F0030370
:1053F800EB600028E0D00027D0F800A03B4600284A
:10540800DAD04268954201460CD101689FB97268AA
:105418003160824200D1716040F8083BFFF72EFFEF
:1054280039460023BAF1000F0BD0DAF800205046B5
:105438000F469246E3E739607268824208BF776098
:10544800EAE75246F3E700BFF40B0020170D0020EF
:10545800F8B5C3689A0704460F46C3F340062CD430
:105468005B071AD40B680BB983680B60E368DD0728
:1054780044BFA3683B603D684CBF02260126002D4F
:105488003AD01F4B9B68AB420AD0D5F89830D80762
:10549800C3F3800214D46FF0120600233B6025E0AA
:1054A80003F027FED5F898300028F0D1D907C3F3C8
:1054B800C002F0D552B15B0708D46FF00F06ECE7D5
:1054C800002AFAD1C3F3C003002BF6D100232360CE
:1054D800D5F8843063B9C5E92044284603F044FE72
:1054E800E36843F00403E3603B68A3603046F8BD1B
:1054F8001C60C5F88440F0E76FF01506CDE700BFE3
:10550800D40B00200146014803F052BE00080020D9
:10551800F0B589B004460020C4E920000E9D04F1CE
:105528008800C4E9220004F19000C4E924001DB3F6
:105538002879002840F2011008BF0120C4F898001B
:1055480000204FF0FF364FF0FF37CDE90330CDE9AB
:105558000100CDE90667094B00942046FFF716FEC7
:1055680025B1296811B1204603F0C9FD204609B0CC
:10557800BDE8F04003F0C8BD0120DFE72153000873
:10558800C3897F2B12D80A4B1B6863B1094B90F96A
:105598000E201B689A4209DB437BDB0606D1064BCB
:1055A800C31A18BF012303F0010070470023FAE76C
:1055B800040C0020000C0020E0060020044BC01A58
:1055C800044BC0105843044B01221A54704700BFC3
:1055D800E0070020ABAAAAAA170D002070B50E4B51
:1055E8000E4C1E7C06EB460304EBC304054620461E
:1055F80003F03AFF0A4B002228469A55FFF7C0FFEE
:1056080048B1084B08491A68013A2046D317BDE843
:10561800704000F0E5BA70BDD40B0020E007002010
:10562800170D0020040C0020C555000838B50D4D95
:105638002B4653F8184F9C4200D004B9EC68AB686D
:1056480038B95A7BD20604D1A26912B9DA897F2AFD
:1056580005D89C4202D02046FFF7C0FF23466B6165
:1056680038BD00BFD40B002070B590F90D20437BE6
:10567800002A014604DA03F07F03437303F0A9FD0F
:105688004B7B154A63F07F0310464B7350F8183F65
:10569800D469834208BF002323B9C1E9000421600B
:1056A800D1610CE091F90E5093F90E60B5420ED01D
:1056B800AE420CDD5868C1E900300160596090685D
:1056C800431A5842BDE870405841FFF7AFBF9C42AB
:1056D800E3D01B68E0E700BFD40B002070B490F95A
:1056E8000D30427B002B29DBD30627D183692BBBE6
:1056F800134962F07F0242730A4652F8184F9442E7
:1057080018BF2346CC6923B9C0E900242060C861CA
:105718000CE090F90E5093F90E60B5420AD0AE42F3
:1057280008DD5A68C0E900321060586070BC00207B
:10573800FFF77CBFA342E7D01B68E4E770BC704763
:10574800D40B002008B590F90D20437B002A0146B0
:1057580004DA03F07F03437303F03BFD044B9868BE
:10576800431A58425841BDE80840FFF75FBF00BFE1
:10577800D40B002070B515461C46064603F044FDC0
:10578800B4F1FF3F08BFB5F1FF3F08D02A462346D2
:1057980006F118000249BDE8704000F021BA70BD5A
:1057A8001F9300082DE9F041002A437B0E460CBFE9
:1057B80010210821194204460AD10B43DD0903F0E0
:1057C8009F0211D14273082914D00120FFF72EFF40
:1057D8001B4B9B68A3422CD1EFF305834BBB304690
:1057E800BDE8F041FCF75ABB03F01F03437303F015
:1057F800F0FCE8E7A36813B1204603F0F2FC04F1DB
:10580800180003F031FE04F158074FF00008A56DA9
:10581800BD42DAD0002DD8D0284603F0E2FC05F1CD
:10582800180003F021FEC5F87C802846FFF756FFD4
:10583800EDE786F31188BFF36F8FBDE8F08100BFF5
:10584800D40B002038B54FF01003EFF3118583F324
:105858001288BFF36F8F104B104A9C681068A042E3
:1058680006D1FFF7BBFE85F31188BFF36F8F38BDF4
:1058780000211B7C11600A4AD35C002BF3D0204620
:10588800FFF77EFE0028EED0637BDB0602D12046C0
:10589800FFF7EAFE2046E4E7D40B0020FC0B0020CB
:1058A800170D002070B50C480C4D86682E600C460C
:1058B8001146DDE904234FF01006EFF3118586F356
:1058C8001288BFF36F8F8068FFF754FF2046BDE84A
:1058D8007040FCF7E3BA00BFD40B0020FC0B00209B
:1058E80049B9EFF3058030B9054B5A699B689A426C
:1058F80001D0FCF7D3BA81F31188BFF36F8F7047DB
:10590800D40B002010B54FF01002EFF3118482F38E
:105918001288BFF36F8F427B510704D484F3118838
:10592800BFF36F8F10BD22F004024273FFF7D6FE5B
:1059380021460248BDE81040FFF7D2BF180D0020ED
:105948004FF01003EFF3118183F31288BFF36F8FC9
:10595800044B9A68D37B013BD37381F31188BFF35F
:105968006F8F7047D40B002010B54FF01003EFF382
:10597800118483F31288BFF36F8F084B9A68D37B27
:105988000133D3730020FFF751FE84F31188BFF36E
:105998006F8FBDE8104003F019BD00BFD40B002085
:1059A800024B03F11802C3E906227047D40B00200A
:1059B800F8B54FF01003EFF3118583F31288BFF3A6
:1059C8006F8F19498868437B03F07F03437303F0A3
:1059D80000FC8B685A7B084662F07F025A7350F8C5
:1059E800182FCC69824208BF002222B9C3E90004FB
:1059F8002360CB610CE093F90E6092F90E70BE4201
:105A08000ED0B7420CDD5168C3E900210B6053602A
:105A18000120FFF70BFE2846BDE8F840FCF73EBA28
:105A2800A242E3D01268E0E7D40B002050EA010359
:105A38002DE9F04105460E4603D1FFF7B9FF0020D6
:105A48002CE0831C71F1FF332ADB03F023FD2C18B3
:105A58004FF01003EFF3118883F31288BFF36F8FB1
:105A6800114F124BB8681860FFF76CFEB868104900
:105A78002A463346183000F0B3F8BA68537B43F02F
:105A8800100353734046FCF709FA03F003FD201A8C
:105A980063EB0303012873F10003D0DBBDE8F08159
:105AA8006FF00104241AD3E7D40B0020FC0B00206C
:105AB8001F930008B1F1FF3F08BFB0F1FF3F08B5E1
:105AC80006D10A4B986803F0D7FB4FF0FF3008BDAA
